:020000040800F2
:1000000068EE0020310300084161000885580008AF
:100010003D610008E10C000881A20008000000001A
:100020000000000000000000000000007102000855
:100030004119000800000000CD020008496E0008C8
:100040004B0300084B0300084B0300084B03000858
:100050004B0300084B0300084B0300084B03000848
:100060004B0300084B0300084B0300084B03000838
:10007000051500084B0300084B0300084B0300085C
:100080004B0300084B0300084B0300084B03000818
:10009000E50C00084B0300084B0300084B03000865
:1000A0004B0300084B0300084B0300084B030008F8
:1000B0004B0300084B0300084B0300084B030008E8
:1000C0004B0300084B0300084B0300084B030008D8
:1000D0004B030008E17900084B030008F57900089C
:1000E0004B0300084B0300084B0300084B030008B8
:1000F0004B0300089D7100084B0300084B030008E8
:100100004B0300084B0300084B0300084B03000897
:100110004B0300084B0300084B0300084B03000887
:100120004B030008151500082515000835150008B3
:100130004B0300084B0300084B0300084B03000867
:10014000F50C00084B0300084B030008C5610008CC
:10015000451500085515000865150008097A0008BE
:100160004B0300084B0300084B0300084B03000837
:100170004B0300084B0300084B030008000000007D
:10018000755800084B03000800F002F800F060F812
:100190000AA090E8000C82448344AAF10107DA45E2
:1001A00001D100F055F8AFF2090EBAE80F0013F0D4
:1001B000010F18BFFB1A43F00103184760E4000069
:1001C00080E400000A444FF0000C10F8013B13F0EB
:1001D000070408BF10F8014B1D1108BF10F8015BA0
:1001E000641E05D010F8016B641E01F8016BF9D193
:1001F00013F0080F1EBF10F8014BAD1C0C1B09D1EA
:100200006D1E58BF01F801CBFAD505E014F8016B5B
:1002100001F8016B6D1EF9D59142D6D370470000ED
:100220000023002400250026103A28BF78C1FBD8FF
:10023000520728BF30C148BF0B6070471FB50DF093
:10024000A2FF9DE8030000F025FA1FBD10B510BD08
:1002500000F0AEFA1146FFF7F1FF0BF033FC00F0AF
:10026000CCFA03B4FFF7F2FF03BC00F0FDFA000084
:100270002C4B19680868B0E8F04F80F30988BFF389
:100280006F8F4FF0000080F311887047000000006E
:1002900008480068006880F308884FF0000080F389
:1002A000148862B661B6BFF34F8FBFF36F8F00DF64
:1002B00000BF00BF08ED00E0DFF80C00016841F46A
:1002C00070010160704700BF88ED00E0EFF3098026
:1002D000BFF36F8F134B1A681EF0100F08BF20ED8D
:1002E000108A20E9F04F106009B44FF0500080F3FD
:1002F0001188BFF34F8FBFF36F8F0CF06BFF4FF080
:10030000000080F3118809BC19680868B0E8F04F54
:100310001EF0100F08BFB0EC108A80F30988BFF3FD
:100320006F8F70472C000020EFF3058070470000AE
:100330000948804709480047FEE7FEE7FEE7FEE779
:10034000FEE7FEE7FEE7FEE7FEE7FEE704480549B5
:10035000054A064B70470000316F0008890100080C
:10036000686E002068EE002068AE002068AE0020B5
:1003700070B5064600F072F9056806F10B0020F032
:100380000704B4429CBF002070BD2B466A68BAB116
:100390001068A04210D304F1080188423CBF5068A5
:1003A000586007D35168101941601168091B01603A
:1003B00058601460101D70BD13465268002AE7D1C2
:1003C0002146284600F052F90028DED170BD70B5F4
:1003D0000446051F00F042F90068002C14BF446871
:1003E00070BD002C18BFAC423CBF20466468F8D3F7
:1003F00001680A18AA4218BF456003D12A68054659
:100400001144016028684119A1421CBF6C6070BD95
:100410006168696021680844286070BD53EA020C75
:1004200000F069802DE9F04B4FF00006002B1FBF54
:10043000B3FA83F503FA05F424FA05F65E4012BF19
:100440001643B2FA82F502FA05F4C5F120051EBF83
:1004500022FA05FC44EA0C04203556EA044C4FEA23
:10046000144418BF641C4FF000084FF0000990427C
:1004700071EB030C39D3002919BFB1FA81F701FAE6
:1004800007F6B0FA80F700FA07F6C7F120071EBF9B
:1004900020FA07FC46EA0C062037B6FBF4FCA7EB73
:1004A0000507103F07F01F0BCBF120060CFA0BFBE2
:1004B0002CFA06F644BFB3460026202FA4BF5E46A2
:1004C0004FF0000B5BEA060C08BF4FF0010B19EB75
:1004D0000B09ABFB027C48EB0608C01B06FB02CCF9
:1004E0000BFB03CC71EB0C01C1E70B460246414606
:1004F0004846BDE8F08B13B54FF000004FF0000107
:10050000AFF30080BDE81C407047032A40F2308002
:1005100010F0030C00F0158011F8013BBCF1020F44
:10052000624498BF11F801CB00F8013B38BF11F8C5
:10053000013BA2F1040298BF00F801CB38BF00F8DC
:10054000013B11F0030300F02580083AC0F0088059
:1005500051F8043B083A51F804CBA0E80810F5E73D
:10056000121D5CBF51F8043B40F8043BAFF3008020
:10057000D20724BF11F8013B11F801CB48BF11F895
:10058000012B24BF00F8013B00F801CB48BF00F865
:10059000012B704710B5203AC0F00B80B1E818501D
:1005A000203AA0E81850B1E81850A0E81850BFF45D
:1005B000F5AF5FEA027C24BFB1E81850A0E81850FC
:1005C00044BF18C918C0BDE810405FEA827C24BF50
:1005D00051F8043B40F8043B08BF7047D20728BFDE
:1005E00031F8023B48BF11F8012B28BF20F8023B2D
:1005F00048BF00F8012B704702F0FF0343EA0322D3
:1006000042EA024200F089B84FF0000200B51346FA
:1006100094469646203922BFA0E80C50A0E80C5022
:10062000B1F12001BFF4F7AF090728BFA0E80C50D3
:1006300048BF0CC05DF804EB890028BF40F8042BCC
:1006400008BF704748BF20F8022B11F0804F18BF39
:1006500000F8012B7047704770477047004870479B
:10066000106E0020704770477047704738B50446D9
:100670000A4600206946AFF30080002808BF38BD55
:1006800002460099204600F071F8012038BD012093
:1006900000F086B8F8B5AFF30080054600200C46A0
:1006A000102000BF0646A819A0420DD9324669465F
:1006B0000020AFF30080070008BF00F071F8009839
:1006C000A04218BF0546C419FFF7C8FF05600746DA
:1006D000F01D20F007004619284600F00AF8B44241
:1006E00008BFF8BDA21B31463868BDE8F84000F0ED
:1006F0003DB800210160C0E901107047102070472B
:1007000010B500F02FF8006810BD10B5044600F0D9
:1007100029F8046010BD4FF000020429C0F01280D7
:1007200010F0030C3FF472AFCCF1040CBCF1020FDB
:1007300018BF00F8012BA8BF20F8022BA1EB0C0179
:10074000FFF764BF5FEAC17C24BF00F8012B00F80B
:10075000012B48BF00F8012B70470000004870478C
:10076000086E002000487047086E0020034640686D
:100770008C46002818BF88423CBF03464068F8D327
:1007800018681844884207D00CF1030020F00700D5
:10079000001D411A521A0146081D0A60FFF717BED4
:1007A00010B500F039F8BDE8104000F02FB87047E0
:1007B0007546FFF7D3FFAE4605006946534620F065
:1007C0000700854618B020B5FFF7C0FDBDE8204002
:1007D0004FF000064FF000074FF000084FF0000BFD
:1007E00021F00701AC46ACE8C009ACE8C009ACE8B0
:1007F000C009ACE8C0098D46704710B50446AFF398
:1008000000802046BDE81040FFF72BBD002801D036
:1008100000F02AB87047000010B5012805D000216B
:1008200003A000F027F8012010BD09A1F8E700009F
:1008300053494752544D454D3A204F7574206F66C9
:100840002068656170206D656D6F72790000000031
:100850003A2048656170206D656D6F727920636F15
:10086000727275707465640001491820ABBEFEE7B2
:100870002600020070B505460C460A2000E06D1CFB
:1008800000F011F835B128780028F8D102E0641C96
:1008900000F009F814B120780028F8D1BDE87040C4
:1008A0000A20AFF3008008B569468DF800000320E8
:1008B000ABBE08BD70B505460C4600260DB1022C36
:1008C00000D870BDA11E4FF6FF72284601F03CF81B
:1008D0000646A01E2E54310A601E295400BFF0E7C0
:1008E00070B505460C4600260DB1022C00D870BD2F
:1008F000611EFF22284601F041F80646601E2E5474
:1009000000BFF4E710B501221021024802F012F9ED
:1009100010BD00000000024010B500221021024866
:1009200002F008F910BD00000000024010B50122DD
:100930001146024802F0FEF810BD0000000402401B
:1009400010B500220121024802F0F4F810BD0000A9
:100950000004024010B50446FFF7DEFF922000F0CD
:10096000A3F906229549122000F07EF9FFF7CAFF8D
:1009700092484078000200B29049097808439049B3
:1009800008800846B0F9000000EE100AB8EEC00A70
:100990008C48D0ED000A20EE200AD4ED080A20EEA3
:1009A000200A84ED000A8548C078000200B283491D
:1009B00089780843824908800846B0F9000000EEB3
:1009C000100AB8EEC00A7F48D0ED000A20EE200AD7
:1009D000D4ED080A20EE200A84ED010A7748407918
:1009E000000200B275490979084375490880084634
:1009F000B0F9000000EE100AB8EEC00A7148D0ED60
:100A0000000A20EE200AD4ED080A20EE200A84ED28
:100A1000020AFFF795FF08226849002000F024F938
:100A2000FFF784FF654800780F284FD166480078AB
:100A3000F0B36248C078000200B260498978084388
:100A40005F49088094ED090A0846B0F9000000EEFD
:100A5000900AF8EEE00A5D4890ED001A10EE810A67
:100A600084ED030A55484079000200B253490979E0
:100A700008435349088094ED0A0A0846B0F900007B
:100A800000EE900AF8EEE00A504890ED001A10EEE1
:100A9000810A84ED040A4948C079000200B247493E
:100AA000897908434649088094ED0B0A084600E01E
:100AB0000DE0B0F9000000EE900AF8EEE00A4348BD
:100AC00090ED001A10EE810A84ED050A44E03B48DF
:100AD000C078000200B23949897808433849088053
:100AE0000846B0F9000000EE100AB8EEC00A374818
:100AF000D0ED000A20EE200A84ED030A2F48407949
:100B0000000200B22D49097908432D4908800846A2
:100B1000B0F9000000EE100AB8EEC00A2B48D0ED84
:100B2000000A20EE200A84ED040A2448C07900025D
:100B300000B2224989790843214908800846B0F962
:100B4000000000EE100AB8EEC00A2048D0ED000AFE
:100B500020EE200A84ED050AFFF7DEFEA22000F059
:100B6000A3F802221549222000F07EF8FFF7CAFE02
:100B700012480078C0001149497840EA61101049D4
:100B800008800846B0F90000B0F5806F05DB084624
:100B90000088A0F5006000B208800948B0F90000A4
:100BA00000EE100AF8EEC00AB4EE001AB3EE070A1F
:100BB00000EE810A84ED070A10BD00003202002019
:100BC0003A020020F401002004020020F801002075
:100BD00070B504460D461C48046000201B4908708F
:100BE0000AF082F9194909780843184908700AF08F
:100BF00031FA164909780843144908701DB11448A0
:100C000000F0D0F91CE09FED130A114880ED090AAD
:100C10009FED110A80ED0A0A9FED0F0A80ED0B0A85
:100C20009FED0E0A80ED0C0A90ED0C0ADFED0C0A28
:100C300080EE801A80ED081A9FED0A0A80ED060A00
:100C40000248007870BD00003C020020FE01002038
:100C500060500020AC38223BB016CE393F161B4105
:100C6000C3F51C410000204270B506460C461546EF
:100C700046F0800000F018F806E0552000F014F867
:100C80002070641C681EC5B2002DF6D170BD70B511
:100C900004460D4644F0800000F006F8552000F0B0
:100CA00003F8287070BD000001B582B04FF47A706F
:100CB000012301AA02A900900348006803F0B8FCD0
:100CC0009DF804000EBD00003C02002070B50546F2
:100CD0000C462846FFF7E8FF2046FFF7E5FF70BD0A
:100CE00000BFFEE710B5024801F089F810BD000012
:100CF0008C05002010B5024801F081F810BD0000FD
:100D0000B405002010B52DED028B044614B9BDECDE
:100D1000028B10BD2078A6280ED006DC902845D086
:100D20009C2807D0A22843D105E0A82805D0C028D8
:100D30003ED13CE000BF00BF00BF607840B2214917
:100D40000870A078E17840EA012000B21D4948808F
:100D50002079617940EA012000B21A498880A0799F
:100D6000E17940EA01201749C88008460089C8B9DE
:100D70000846C08808810846C088A0F28E2000EE90
:100D8000100AB8EEC00ADFED100A80EE201A9FEDBF
:100D90000F0A21EE000AB0EE408A0BF0DFFD094891
:100DA00080ED030A082005F0F9F902E001E000E017
:100DB00000BF00BF14220349022000F093FC00BFD3
:100DC000A5E700008C4F00200000004700003443DE
:100DD000F8B507460C4615461E464FF400700D49FF
:100DE000086000208860C86008200861380A0A4945
:100DF00008704F70200A8870CC70280A08714D71F5
:100E0000300A8871CE716B460A460249034800F0E9
:100E1000F6FDF8BDA04F0020B10100208C05002098
:100E200017B581B00446134804600020114988605A
:100E3000C86008200861A2200F490870002048708F
:100E40009DF8080088709DF80900C8709DF80C0096
:100E500008719DF80D0048719DF80E0088719DF88D
:100E60000F00C8716B460A460249044800F0C7FDEE
:100E70001FBD0000E84F0020C90100208C050020A4
:100E80000346042B15D007DC7BB1012B0ED0022BBF
:100E90000DD0032B12D10BE0202B0BD0212B0AD02D
:100EA000222B09D0232B09D107E008E007E006E058
:100EB00005E004E003E002E001E000E000BF00BF65
:100EC000002070470020704710B5002204490548F3
:100ED00007F03DF80449034807F02AF8002010BD48
:100EE000045F0020285200200457002070B50446FB
:100EF0000D462146034807F01BF8024806F0E4FFC0
:100F0000002070BD2852002010B503460C46002179
:100F1000084610BD2DE9F04707460E46904606F1FB
:100F200009001FFA80FAD1464846FFF721FA044625
:100F30000025A52228466D1C225428466D1C2654E7
:100F4000320A28466D1C2254002228466D1C225469
:100F500028466D1C225428466D1C04F800804FEA78
:100F6000182228466D1C22543FB1002E05DD601961
:100F700032463946FFF7C9FA354405212046FFF7C6
:100F8000AFFC51462046FFF795FC1FFA89F2214637
:100F9000034804F01FFC2046FFF719FABDE8F0876C
:100FA0009407002070B52DED048B88B00446002016
:100FB0000690079000F0E4FBFE4880ED000A00BFB9
:100FC00000F0DEFBFB48D0ED000A30EE600AF2EEE6
:100FD000040AB4EEE00AF1EE10FA14DD9FEDF60A11
:100FE00084ED090A9FEDF50A84ED0A0A9FEDF30AE4
:100FF00084ED0B0A9FEDF20A84ED0C0A9FEDF10AD5
:1010000084ED060A55E29FEDF00A00F09BFB9FED90
:10101000EF0A84ED0C0A9FEDED0A84ED090A9FEDBD
:10102000EB0A84ED0A0A9FEDE90A84ED0B0A00261B
:1010300073E1FFF771FC9220FFF736FE062206A946
:101040001220FFF711FEFFF75DFC9DF8190000026A
:1010500000B29DF8181040EA010500EE105AB8EEF3
:10106000C00ADB48D0ED000A20EE200A84ED000A19
:101070009DF81B00000200B29DF81A1040EA01051D
:1010800000EE105AB8EEC00AD148D0ED000A20EEAA
:10109000200A84ED010A9DF81D00000200B29DF8AF
:1010A0001C1040EA010500EE105AB8EEC00AC8480C
:1010B000D0ED000A20EE200A84ED020AD4ED000AE9
:1010C00060EEA00A94ED011AD4ED011A41EE210A56
:1010D00094ED021AD4ED021A41EE210AB0EE600A34
:1010E00009F01BFCB0EE408A94ED0C0A30EE080AC1
:1010F00084ED0C0AFFF724FC082206A90020FFF764
:10110000B3FDFFF713FC9DF818000F2850D19DF890
:101110001B00000200B29DF81A1040EA010500EE23
:10112000105AB8EEC00AAB48D0ED000A20EE200AF3
:1011300084ED030A94ED090AD4ED030A30EE200A87
:1011400084ED090A9DF81D00000200B29DF81C10F4
:1011500040EA010500EE105AB8EEC00A9D48D0EDF5
:10116000000A20EE200A84ED040A94ED0A0AD4ED68
:10117000040A30EE200A84ED0A0A9DF81F000002DE
:1011800000B29DF81E1040EA010500EE105AB8EEBC
:10119000C00A9048D0ED000A20EE200A84ED050A2E
:1011A00094ED0B0AD4ED050A30EE200A84ED0B0A0B
:1011B00006BBF0EE488AB0EE489A002017E004F132
:1011C0000C0101EB800191ED000A03A901EB800104
:1011D00081ED000A04F10C0101EB800191ED000AA0
:1011E000694601EB800181ED000A411CC8B2032869
:1011F000E5DB49E0B4EEE88AF1EE10FA01DDF0EE4D
:10120000488AB4EEC98AF1EE10FA01D2B0EE489ADB
:10121000002037E004F10C0101EB800191ED000AA0
:1012200003A901EB8001D1ED000AB4EEE00AF1EE72
:1012300010FA0ADD04F10C0101EB800191ED000AC6
:1012400003A901EB800181ED000A04F10C0101EB1F
:10125000800191ED000A694601EB8001D1ED000AA1
:10126000B4EEE00AF1EE10FA0AD204F10C0101EB3F
:10127000800191ED000A694601EB800181ED000AD1
:10128000411CC8B20328C5DB38EEC90A524880EDBC
:10129000000A002012E003A901EB800191ED000A91
:1012A000694601EB8001D1ED000A30EE600A4B493E
:1012B00001EB800181ED000A411CC8B20328EADB82
:1012C000454890ED000AF6EE000AB4EEE00AF1EEB1
:1012D00010FA1BDC414890ED000ADFED410AB4EE44
:1012E000E00AF1EE10FA11DC90ED010ADFED3C0AA4
:1012F000B4EEE00AF1EE10FA08DC90ED020ADFED40
:10130000380AB4EEE00AF1EE10FA00DD0AE09FEDD3
:10131000350A00F017FA701C86B2334800888642FE
:10132000FFF687AE00BFD4ED0C0A2F48008800EE10
:10133000100AB8EE400A80EE801A84ED0C1A0020E4
:1013400015E004F1240101EB8001D1ED000A2649EA
:10135000098800EE101AB8EE400A80EE801A04F1F7
:10136000240101EB800181ED001A411CC8B2032861
:10137000E7DBFFF7D1FAA220FFF796FC022206A9CD
:101380002220FFF771FCFFF7BDFA9DF81800C0009E
:101390009DF8191040EA6115B5F5806F02DBA5F5DF
:1013A000006005B200EE105AF8EEC00AB4EE001A62
:1013B0001CE000002C020020AC38223BB016CE39D5
:1013C0003F161B41000020420AD7A33B000000004B
:1013D000F4010020F80100200002002054500020F9
:1013E0009A99193E6F12033A30020020B3EE070AB1
:1013F00000EE810A84ED060A34480088401C00B2E1
:1014000032490880324890ED000AF6EE000AB4EE48
:10141000E00AF1EE10FA3FF7D3AD94ED0C0ADFEDE0
:101420002D0A30EE600AB0EEC00AF6EE000AB4EE05
:10143000E00AF1EE10FAEEDC274890ED000A5FEDCD
:10144000180AB4EEE00AF1EE10FAE4DC90ED010ABD
:101450005FED1D0AB4EEE00AF1EE10FADBDC90ED70
:10146000020A5FED210AB4EEE00AF1EE10FAD2DCD6
:1014700094ED090AB0EEC00ADFED180AB4EEE00AF6
:10148000F1EE10FAC7DC94ED0A0AB0EEC00ADFED07
:10149000130AB4EEE00AF1EE10FABCDC94ED0B0A8C
:1014A000B0EEC00ADFED0D0AB4EEE00AF1EE10FA7C
:1014B000B1DC00BF94ED0C0ADFED090A80EE801A62
:1014C00084ED081A08B0BDEC048B70BD0602002044
:1014D00000020020CDCC1C41545000200AD7233CF0
:1014E000C3F51C4109F01CFF0AE00AF065F80AF098
:1014F00029FC0AF07BFD0AF023FB03200AF0FAFD29
:10150000F3E7000010B5024800F0F4FF10BD000042
:101510002C09002010B5024800F0ECFF10BD0000BF
:101520008C09002010B5024800F0E4FF10BD000057
:101530004406002010B5024800F0DCFF10BD00009A
:10154000A406002010B5024800F0D4FF10BD000032
:101550006C08002010B5024800F0CCFF10BD000060
:10156000EC09002010B5024800F0C4FF10BD0000D7
:10157000CC0800200146087810381823B0FBF3F29D
:101580000848805CC865032A05D908686FF309001C
:10159000001D886503E008686FF309008865886DA1
:1015A000704700001CE20008014600208A6A8B692F
:1015B000CBB932B1012A0DD0022A03D0032A10D1AF
:1015C0000EE000BFCB6A03F08073B3F1807F00D1DF
:1015D000012007E0CB6AB3F1C07F00D1012001E018
:1015E00000E000BF34E08B69B3F5005F1AD132B17F
:1015F000012A07D0022A03D0032A11D10AE000BF32
:1016000001200EE0CB6A03F08073B3F1807F00D13C
:10161000012006E0CB6AB3F1C07F00D1012000E0D9
:1016200000BF15E032B1012A05D0022A04D0032AF6
:101630000CD103E000BF00BF012008E0CB6A03F03B
:101640008073B3F1807F00D1012000E000BF00BFB4
:10165000704730B50468246824F4802405682C6041
:10166000046863608468402C04D10468A260046844
:10167000E16003E00468A1600468E26030BD00003E
:1016800018B5034600939DF8000009280EDA0848B3
:101690009DF8004050F83400086005489DF800406F
:1016A00000EBC40040681060012018BD0020FCE77A
:1016B00088E500087CB506460C4615466A4601A931
:1016C0003046FFF7DDFF08B901207CBD0098854258
:1016D00001D00220F9E72A4620460199FEF715FFBE
:1016E0000020F2E77CB505460E4614466A4601A97D
:1016F0002846FFF7C5FF08B901207CBD0098844249
:1017000001D00220F9E7224631460198FEF7FDFE9E
:101710000020F2E708B508484068009007490098A3
:101720000968884204D206480068401C04490860E1
:1017300002490098086008BD001000E0B8000020D1
:10174000B40000200C494868F0EE400A00BF0A4986
:101750004968091A01EE101AF8EE411A074991ED8D
:10176000001AB8EE411A20EE811AF4EEC11AF1EE19
:1017700010FAECD370470000001000E0A800002031
:1017800010B52DED028B00F073F80F4890ED000AB4
:10179000B8EE400A808800EE900AF8EE600A9FEDED
:1017A0000B1A00EE810A0848C08800EE900AF8EE95
:1017B000600A9FED071A00EE810AB0EE408AB0EE93
:1017C000480ABDEC028B10BDA00000206F12833AC6
:1017D000BD37863570B500F04BF8094800680949F7
:1017E00048430749898801EB4102C2EBC11100EB74
:1017F000C1000349C988441800252046294670BD08
:10180000A000002040420F001249096841F0807199
:10181000104A11600021104A51601146096841F0D8
:10182000010111600D4941430D4A116011460968DB
:101830004FF47A72B1FBF2F10A4A11600849096863
:10184000064AB1FBF2F1084A11600021074A116013
:1018500070470000FCED00E0001000E040420F0087
:10186000A8000020AC000020B0000020B400002040
:1018700038B5294840680090FFF74CFF27480068BA
:101880004FF0FF31A0FB01310098181841F1000121
:10189000234A03C2234800232149026803C9FEF7F3
:1018A000BDFD214A03C220480CC81E480068002420
:1018B000A2FB001503FB005002FB04021848D0E90C
:1018C0000030591A60EB0200184AC2E900101648AD
:1018D000006817490860174800231449026803C9C3
:1018E000FEF79CFD124988800846808811490968E6
:1018F00041430E48D0E90030591A60F100000E4A09
:10190000C2E900100D4800230B49026803C9FEF725
:1019100085FD0749C88038BD001000E0B4000020F4
:10192000C0000020A8000020C8000020D000002037
:10193000A0000020AC000020D8000020B000002053
:10194000704772B600BFFEE730B5034613B94FF6D5
:10195000FF7030BD09E013F8014B82EA0400C0B209
:10196000054D35F8100080EA2222081EA1F1010180
:10197000F1D11046EDE7000076E3000830B50346EC
:1019800005E013F8010B80EA02040448025D081E1A
:10199000A1F10101F5D1104630BD000073E200084D
:1019A00070B50A480468001D0568001D06683444C7
:1019B00054B108220649204603F066FF0422044978
:1019C0001031284603F060FF70BD0000107AFF1F41
:1019D0007A02002010B5024692F82030012B01D087
:1019E000022B06D11068406908431468606100202A
:1019F00010BD506A40F4802050620120F8E7F0B535
:101A000004460D461E4694F8207020688368A86836
:101A100000B900E000BF012F01D0022F7DD103F0FB
:101A2000806030B903F0006018B903F080500028DE
:101A30007ED0C3F30161012088403060A86860B99E
:101A4000B5F800C0E86840EA4C5C206800F5C0705A
:101A500000EB0110C0F800C00FE0D5E901C040EA7A
:101A6000CC00D5F80CC040EA0C00D4F800C00CF54E
:101A7000C07C0CEB011CCCF80000D5F810C020682D
:101A800000F5C07000EB0110C0F804C0287D0128EB
:101A90000ED1206800F5C07000EB0110406840F4E2
:101AA000807C206800F5C07000EB0110C0F804C015
:101AB000D079000692F806C040EA0C4092F805C0C2
:101AC00040EA0C2092F804C040EA0C00D4F800C0B0
:101AD0000CF5C07C0CEB011CCCF80C00D078000697
:101AE00092F802C040EA0C4092F801C040EA0C2093
:101AF00092F800C040EA0C00D4F800C00CF5C07C9D
:101B00000CEB011CCCF80800206800F5C07000EB5D
:101B10000110006840F0010C01E00FE008E02068CF
:101B200000F5C07000EB0110C0F800C00020F0BD4F
:101B3000606A40F4001060620120F8E7606A40F4D7
:101B4000802060620120F2E7F0B504460A4694F86E
:101B50002050012D01D0022D7ED1424901F50071A6
:101B6000086840F001000860086820F47C500860B4
:101B70000868566A40EA06200860107D00F01F06DB
:101B8000012000FA06F3C8699843C861A1F5007105
:101B9000D069C8B9D1F80C029843C1F80C029088FA
:101BA00080B2968940EA064601F51070576940F800
:101BB0003760108880B2168940EA064601F5107039
:101BC000576900EBC7004660D069012819D1D1F8E8
:101BD0000C021843C1F80C02908880B2168840EAC3
:101BE000064601F51070576940F83760908980B259
:101BF000168940EA064601F51070576900EBC700E8
:101C00004660906928B9D1F804029843C1F80402EB
:101C100004E0D1F804021843C1F80402106928B99D
:101C2000D1F814029843C1F8140204E0D1F8140268
:101C30001843C1F81402106A012804D1D1F81C021B
:101C40001843C1F81C02D1F8000220F00100C1F8CD
:101C500000020020F0BDFFE7606A40F4802060626F
:101C60000120F7E700640040704770B5044694F81F
:101C70002050012D01D0022D7DD151B92068C068BE
:101C800000F0030080B9606A40F400106062012037
:101C900070BD2068006900F0030028B9606A40F454
:101CA000001060620120F3E7206800F5D87000EBB7
:101CB0000110006800F004009060906840B920684E
:101CC00000F5D87000EB01100068400D106007E0CF
:101CD000206800F5D87000EB01100068C008506063
:101CE000206800F5D87000EB0110006800F00200D9
:101CF000D060206800F5D87000EB0110406800F05B
:101D00000F00082802D30820106108E0206800F5C1
:101D1000D87000EB0110406800F00F0010612068DF
:101D200000F5D87000EB0110406800F47F40000A15
:101D30009061206800F5D87000EB01104068000C3D
:101D40005061206800F5D87000EB011080681870B1
:101D5000206800F5D87000EB0110806800F47F4027
:101D6000000A5870206800F5D87000EB01108068F8
:101D700000F47F0000E03CE0000C9870206800F563
:101D8000D87000EB01108068000ED870206800F554
:101D9000D87000EB0110C0681871206800F5D87089
:101DA00000EB0110C06800F47F40000A5871206801
:101DB00000F5D87000EB0110C06800F47F00000C43
:101DC0009871206800F5D87000EB0110C068000E13
:101DD000D87131B92068C06840F020002668F060F2
:101DE00005E02068006940F020002668306100208E
:101DF0004EE7606A40F480206062012048E72DE9E8
:101E0000F05F04460025206846692068D0F80490F9
:101E1000206887682068D0F80CA02068D0F810B03F
:101E20002068D0F8188006F00100002855D007F08F
:101E30000100C0B101202168886007F0020018B1DC
:101E4000204600F0E6FA0EE007F0040010B145F479
:101E5000006508E007F0080010B145F4805502E085
:101E6000204600F0D5FA07F48070C8B14FF48070B6
:101E70002168886007F4007018B1204600F0CBFAA2
:101E80000EE007F4806010B145F4005508E007F457
:101E9000006010B145F4804502E0204600F0BAFA37
:101EA00007F48030C8B14FF480302168886007F4AF
:101EB000003018B1204600F0B0FA0EE007F48020A0
:101EC00010B145F4004508E007F4002010B145F4D6
:101ED000803502E0204600F09FFA06F0080038B195
:101EE0000AF0100020B145F4007510202168C86088
:101EF00006F0040040B10AF0080028B1082021686B
:101F0000C860204600F00CFA06F0020038B12068E4
:101F1000C06800F0030010B1204600F003FA06F09C
:101F2000400038B10BF0100020B145F4806510205E
:101F30002168086106F0200040B10BF0080028B1CC
:101F4000082021680861204600F030FA06F01000F1
:101F500038B12068006900F0030010B1204600F09D
:101F600026FA06F4003040B109F0100028B1102024
:101F700021684860204600F01BFA06F4803040B12A
:101F800009F0080028B1082021684860204600F0C8
:101F900045FA06F4004088B309F0040078B306F46B
:101FA000807020B108F0010008B145F0010506F489
:101FB000007020B108F0020008B145F0020506F4F7
:101FC000806020B108F0040008B145F0040506F473
:101FD0000060A0B108F0700088B108F070004028DF
:101FE00017D006DC10280BD020280CD0302819D1AF
:101FF0000CE0502810D0602814D110E01DE019E04A
:1020000045F008050FE045F010050CE045F020050F
:1020100009E045F0400506E045F0800503E045F4A1
:10202000807500E000BF00BF2068806920F070006C
:10203000216888610420216848602DB1606A2843C6
:1020400060622046FFF710FEBDE8F09F70B50446C1
:102050000CB9012070BD94F8200010B9204600F0A2
:10206000AFF82068006840F001002168086000F0C7
:1020700067FD05460DE000F063FD401B0A2808D906
:10208000606A40F400306062052084F8200001207E
:10209000E0E72068406800F001000028EBD02068ED
:1020A000006820F002002168086000F049FD054644
:1020B0000DE000F045FD401B0A2808D9606A40F495
:1020C00000306062052084F820000120C2E720680B
:1020D000406800F002000028EBD1207E012806D1E4
:1020E0002068006840F080002168086005E02068F2
:1020F000006820F0800021680860607E012806D119
:102100002068006840F040002168086005E0206811
:10211000006820F0400021680860A07E012806D1F8
:102120002068006840F020002168086005E0206811
:10213000006820F0200021680860E07E012806D1B8
:102140002068006820F010002168086005E0206821
:10215000006840F0100021680860207F012806D147
:102160002068006840F008002168086005E02068E9
:10217000006820F0080021680860607F012806D10F
:102180002068006840F004002168086005E02068CD
:10219000006820F0040021680860D4E902010843C7
:1021A00021690843616908436168491E0843216841
:1021B000C86100206062012084F82000002049E707
:1021C00010B586B00446142101A8FEF71DFA4E4949
:1021D0002068884241D14D480068401C4B49086046
:1021E0000846006801280FD100BF00200090484831
:1021F000006840F00070464908600846006800F03A
:102200000070009000BF00BF00BF00200090404859
:102210001038006840F008003D4910390860084651
:10222000006800F00800009000BF00BF032001908C
:1022300002200290002003900320049009200590C2
:1022400001A9344800F07CFB00220521142000F095
:102250003FFD142000F028FD54E02F4920688842FB
:1022600050D100BF002000902948006840F08060F5
:10227000274908600846006800F08060009000BFB1
:1022800000BF22480068401C2049086008460068DA
:1022900001280FD100BF002000901D48006840F0C9
:1022A00000701B4908600846006800F0007000904C
:1022B00000BF00BF00BF0020009015481038006824
:1022C00040F002001249103908600846006800F02A
:1022D0000200009000BF00BF602001900220029029
:1022E00000200390032004900920059001A90B48C9
:1022F00000F026FB00220521402000F0E9FC4020F0
:1023000000F0D2FC06B010BD0064004018000020B0
:1023100040380240000C02400068004000040240C7
:102320007047000010B588B004461C4B01AA00217C
:102330002046FFF79AFC1A492068884224D140F2CF
:1023400002220198811A90420CD005DCA0F24110C3
:10235000A0B1C02816D104E0012904D0022911D16E
:1023600002E000BF00BF00BF0198401E0D49087089
:102370000A490C48007809F025FB04E00748FEF7FD
:10238000C1FC00E000BF06E007492068884202D196
:1023900000BF00BF00BF08B010BD0000A8010020B2
:1023A00000640040B00100200068004070477047A2
:1023B000704770B5044694F82000012822D102200D
:1023C00084F820002068006820F00100216808607F
:1023D00000F0B6FB05460DE000F0B2FB401B0A28FA
:1023E00008D9606A40F400306062052084F820005B
:1023F000012070BD2068406800F001000028EBD18A
:102400006062F6E7606A40F4002060620120F0E755
:10241000704770477047704770477047704770B596
:102420000446A56D00F08CFB064694F835000228A2
:1024300008D08020606500BF002084F8340000BF11
:10244000012070BD2068006820F016002168086037
:102450002068406920F0800021684861206C08B93C
:10246000A06C28B12068006820F00800216808608E
:102470002068006820F001002168086010E000F08A
:102480005FFB801B05280BD920206065032084F8A2
:10249000350000BF002084F8340000BF0320D0E7DF
:1024A0002068006800F001000028E8D194F85C1072
:1024B0003F208840A860012084F8350000BF00203C
:1024C00084F8340000BF00BFBBE7014691F8350037
:1024D000022803D08020486501207047052081F83C
:1024E00035000868006820F001000A6810600020CC
:1024F000F3E70000F8B50446002000908C4800681F
:102500004FF41651B0FBF1F7A56D2E6894F85C10EE
:1025100008208840304098B12068006800F004002E
:1025200070B12068006820F004002168086094F809
:102530005C1008208840A860606D40F00100606574
:1025400094F85C1001208840304068B120684069F0
:1025500000F0800040B194F85C1001208840A86031
:10256000606D40F00200606594F85C1004208840C3
:10257000304068B12068006800F0020040B194F873
:102580005C1004208840A860606D40F00400606525
:1025900094F85C1010208840304078B320680068C0
:1025A00000F0080050B394F85C1010208840A86038
:1025B0002068006800F4802080B12068006800F482
:1025C000002028B9206CC8B12046216C884715E04E
:1025D000A06C98B12046A16C88470FE02068006885
:1025E00000F4807028B92068006820F00800216895
:1025F0000860206C10B12046216C884794F85C106C
:10260000202088403040002865D02068006800F015
:10261000100000285FD094F85C1020208840A8604B
:1026200094F83500052828D12068006820F01600AD
:10263000216808602068406920F0800021684861B6
:10264000206C08B9A06C28B12068006820F0080050
:102650002168086094F85C103F208840A860012041
:1026600084F8350000BF002084F8340000BF206DDE
:1026700010B12046216D8847F8BD2068006800F43D
:10268000802080B12068006800F4002028B9606CC8
:1026900010B12046616C88471DE0E06BD8B1204640
:1026A000E16B884717E02068006800F4807068B923
:1026B0002068006820F0100021680860012084F87C
:1026C000350000BF002084F8340000BFE06B10B17B
:1026D0002046E16B8847606D38B3606D00F0010003
:1026E000F0B1052084F835002068006820F0010072
:1026F0002168086000BF0098401C0090B84200D9D3
:1027000005E02068006800F001000028F3D100BF58
:10271000012084F8350000BF002084F8340000BF99
:10272000E06C10B12046E16C884700BFA4E70000D0
:10273000280000202DE9F0410446002500F000FAB1
:10274000074614B90120BDE8F081606A00B100BFFE
:10275000022084F8350000BF002084F8340000BF58
:102760002068006820F00100216808600AE000F09D
:10277000E7F9C01B052805D920206065032084F8EF
:102780003500E0E72068006800F001000028EED185
:102790002068056821480540D4E901010843E16843
:1027A00008432169084361690843A1690843E16955
:1027B0000843216A08430543606A042803D1D4E929
:1027C0000B0108430543206805602068456925F032
:1027D0000705606A0543606A04280DD1A06A0543B5
:1027E000E06A48B12046FEF7DFFE28B14020606570
:1027F000012084F83500A6E7206845612046FEF7F1
:10280000B9FE064694F85C103F208840B060002076
:102810006065012084F83500002094E73F8010F0C7
:102820002DE9F04104460D4616461F464FF00008BC
:1028300000BF94F83400012802D10220BDE8F081E5
:10284000012084F8340000BF94F83500012811D12C
:10285000022084F83500002060653B463246294658
:102860002046FEF7F6FE2068006840F0010021686F
:10287000086006E000BF002084F8340000BF4FF07D
:1028800002084046DAE72DE9F04704460D461646B1
:102890001F464FF00008D4F8589000BF94F8340059
:1028A000012802D10220BDE8F087012084F834001D
:1028B00000BF94F83500012825D1022084F83500A6
:1028C000002060653B46324629462046FEF7C1FEA1
:1028D00094F85C103F208840C9F808002068006820
:1028E00040F0160021680860206C28B1206800685C
:1028F00040F00800216808602068006840F001008E
:102900002168086006E000BF002084F8340000BFA2
:102910004FF002084046C6E770B5044600F010F9D3
:1029200006462546681C10B104480078054400BFDF
:1029300000F006F9801BA842FAD370BD24000020E5
:10294000F8B502460B460025002400200021D6E001
:10295000012606FA01F51E6806EA0504AC4274D1A8
:102960001E7906F00306012E04D01E7906F0030638
:10297000022E13D190684F000326BE40B0434F0093
:10298000DE68BE4030439060506801268E40B04300
:102990001E79C6F300168E40304350601E7906F053
:1029A0000306032E09D0D0684F000326BE40B04373
:1029B0004F009E68BE403043D0601E7906F003068B
:1029C000022E13D1CF0802F1200656F827004E0739
:1029D000F70E0F26BE40B0434F07FF0E1E69BE40E4
:1029E0003043CF0802F1200646F8270010684F0058
:1029F0000326BE40B0431E7906F003064F00BE40DA
:102A0000304310605E6806F44036002E76D000BF7A
:102A1000002600963C4E366846F480463A4F3E60AB
:102A20003E46366806F48046009600BF00BF374E2B
:102A30008F0856F827008E07370F0F26BE40B04389
:102A4000334EB24202D1002624E057E0314EB2426A
:102A500001D101261EE0304EB24201D1022619E01A
:102A60002E4EB24201D1032614E02D4EB24201D1C6
:102A700004260FE02B4EB24201D105260AE02A4E71
:102A8000B24201D1062605E0284EB24201D1072606
:102A900000E008268F073F0FBE4030431B4E8F08D3
:102AA00046F82700224E3068A0435E6806F4801680
:102AB00006B120431E4E3060361D3068A0435E686C
:102AC00006F4001606B12043194E361D3060184E2C
:102AD000361F3068A0435E6806F4003606B1204316
:102AE000134E361F3060361F3068A0435E6806F410
:102AF000803606B120430E4E083E3060491C102936
:102B0000FFF426AFF8BD0000443802400838014009
:102B1000000002400004024000080240000C024095
:102B2000001002400014024000180240001C024045
:102B3000083C01400AB1816101E00B0483617047E8
:102B400001480068704700001C000020034800682E
:102B50000349097808440149086070471C000020B7
:102B60002400002010B50D48006840F400700B49A7
:102B700008600846006840F4806008600846006805
:102B800040F480700860032000F0E0F80F2000F0AF
:102B900007F800F05FF8002010BD0000003C024084
:102BA0002DE9F04188B004460027B84600BF002058
:102BB00001902348006840F480702149086008466D
:102BC000006800F48070019000BF00BF02A903A854
:102BD00001F064F8069F1FB901F088F8054602E08D
:102BE00001F084F845001748B5FBF0F0A0F10108AA
:102BF00015481649086040F2E7311448C160C0F832
:102C00000480002101618160816101F091FE06462E
:102C100096B90E4801F03EFF06466EB92D2000F031
:102C200043F8102C07D2002221462D2000F050F846
:102C30000748046000E00126304608B0BDE8F08196
:102C40004038024040420F00002000404C0A002063
:102C50002000002008B500BF002000901148006847
:102C600040F480400F4908600846006800F4804046
:102C7000009000BF00BF00BF00200090081F006848
:102C800040F08050091F08600846006800F080503E
:102C9000009000BF00BF00220F21901E00F018F826
:102CA00008BD0000443802400146084600280DDBFC
:102CB00000BF00BF00F01F0301229A4043099B00A0
:102CC00003F1E023C3F8002100BF00BF00BF70473D
:102CD0002DE9F05F80460D461646002707F02CFBD5
:102CE000074639462A46334601F00700C0F1070A75
:102CF000BAF1040F02D94FF0040A01E0C0F1070A4B
:102D0000D14600F1040ABAF1070F02D24FF0000ACF
:102D100001E0A0F1030AD4464FF0010A0AFA09FAC9
:102D2000AAF1010A0AEA020A0AFA0CFA4FF0010BA8
:102D30000BFA0CFBABF1010B0BEA030B4AEA0B0499
:102D40002146404607F000FBBDE8F09F00BF00F0C1
:102D50000702064B19684FF6FF031940044B0B435B
:102D600043EA0221014B196000BF70470CED00E0FF
:102D70000000FA0570470246106841620020704763
:102D8000F0B5034615461868446A21B944EA05407F
:102D90001E68B06219E01868806A04EB10440022D3
:102DA00008E0186800F5827050F8220004EB104427
:102DB000501CC2B2481E9042F3D844EA0547186836
:102DC00000F582704E1E40F826700020F0BD10B550
:102DD0000446D4F8E00405F0BCFD10BD70B504460F
:102DE0000D4605EBC50304F1140101EB8301CA682C
:102DF0002946D4F8E00405F09FFC70BD70B5044688
:102E00000D4605EBC50304F5157101EB8301CA6896
:102E10002946D4F8E00405F017FD70BD10B504464E
:102E2000D4F8E00405F098FD10BD2DE9F04104460A
:102E30000D4605F08000802808D105F00F0000EB5A
:102E4000C00104F1140000EB810607E005F00F005B
:102E500000EBC00104F5157000EB810631462068D7
:102E600006F0D0FF07463846BDE8F08170B504464D
:102E70000E4606F0800080280AD106F00F0000EB15
:102E8000C00104F1140000EB81050120687009E025
:102E900006F00F0000EBC00104F5157000EB810592
:102EA0000020687006F00F00287000BF94F89404AA
:102EB000012801D1022070BD012084F8940400BFD4
:102EC0002946206806F02CFB00BF002084F89404FB
:102ED00000BF00BFEFE770B504460E4606F00F00D6
:102EE0002179884201D9012070BD06F08000802838
:102EF0000AD106F00F0000EBC00104F1140000EB52
:102F000081050120687009E006F00F0000EBC001A8
:102F100004F5157000EB8105002068700020A87092
:102F200006F00F00287000BF94F89404012801D126
:102F30000220D9E7012084F8940400BF29462068C4
:102F400006F0ECFC00BF002084F8940400BF00BF32
:102F5000CAE7024601F00F0000EBC00302F515704E
:102F600000EB8300406970472DE9F04705460E46A7
:102F700090461F464FF0000906F0800080280AD1D5
:102F800006F00F0000EBC00105F1140000EB810416
:102F90000120607009E006F00F0000EBC00105F5AC
:102FA000157000EB81040020607006F00F002070A7
:102FB000C8F30A00A0602771607808B120786083A8
:102FC000022F01D10020607100BF95F89404012800
:102FD00002D10220BDE8F087012085F8940400BFEB
:102FE0002146286806F0A8F900BF002085F894045F
:102FF00000BF4846EEE72DE9F04105460E4617466C
:10300000984606F00F0000EBC00105F5157000EBC7
:103010008104E760C4F8108000206061607006F0F1
:103020000F002070A879012800D1E761AA79214614
:10303000286806F007FD0020BDE8F08170B5044661
:103040000D4605F00F002179884201D9012070BD9D
:1030500005F0800080280AD105F00F0000EBC001C8
:1030600004F1140000EB81060120707007E005EB0D
:10307000C50104F5157000EB810600207070012079
:10308000B07005F00F00307000BF94F89404012870
:1030900001D10220DBE7012084F8940400BF31460F
:1030A000206806F082FC05F00F0028B9A17904F22F
:1030B0009C42206806F0FAFB00BF002084F89404CC
:1030C00000BF00BFC3E72DE9F04105460E46174695
:1030D000984606F00F0000EBC00105F1140000EB6C
:1030E0008104E760C4F810800020606101206070F6
:1030F00006F00F002070A879012800D1E761AA79B5
:103100002146286806F09EFC0020BDE8F0812DE9EC
:10311000FE4F0446D4F800B05E46206806F054FF27
:10312000002874D1206806F08EFF08B9BDE8FE8F34
:1031300040F608008059C0F30D20C4F8D40420687C
:1031400006F081FF00F00200022805D120684069E6
:1031500000F0020021684861206806F074FF00F06A
:103160001000102845D12068806920F010002168E7
:103170008861DBF8209009F00F0000EBC00104F536
:10318000157000EB810AC9F3434002281AD147F6B3
:10319000F07009EA000030B3C9F30A125846DAF8B1
:1031A0000C1006F055FFC9F30A11DAF80C000844B8
:1031B000CAF80C00C9F30A11DAF814000844CAF876
:1031C000140010E0C9F3434006280CD1082204F291
:1031D0009C41584606F03CFFC9F30A11DAF8140086
:1031E0000844CAF814002068806940F01000216883
:1031F0008861206806F027FF00F40020B0F5002F5A
:103200007BD10025206806F0EEFE029072E0E1E23C
:10321000029800F00100002868D0E9B2206806F0AA
:1032200005FF804608F0010048B1012106F5306035
:1032300000EB451081602946204602F0FDFF08F0B2
:103240000800082809D1082106F5306000EB451078
:1032500081602946204602F0BDFF08F010001028CA
:1032600005D1102106F5306000EB4510816008F0B3
:103270000200022824D1DBF8140000F0800080282E
:1032800007D140F60400805940F4806140F6040004
:10329000815105EBC50104F5157000EB810A9AF820
:1032A0000300012806D100208AF80300E9B2204675
:1032B00000F09BFA022106F5306000EB45108160BA
:1032C00008F02000202805D1202106F5306000EB11
:1032D0004510816008F40050B0F5005F06D14FF44E
:1032E000005106F5306000EB451081606D1C0298BE
:1032F00040080290029800288AD1206806F0A3FEB8
:1033000000F48020B0F5802F7DD1206806F061FEAA
:10331000029000259AE0029800F00100002873D086
:10332000E9B2206806F069FE804608F00100F0B3BB
:1033300005F00F0101208840019040F634008159CA
:10334000019821EA000040F634018851012106F578
:10335000106000EB45108160A079012824D105EBB5
:10336000C50104F1140000EB810005EBC502C16842
:1033700004F1140000EB82008068014405EBC502F3
:1033800004F1140000EB8200C1606DB905EBC501CA
:1033900004F1140000EB8100006928B904F29C429A
:1033A0000121206806F082FAE9B2204600E001E03F
:1033B000FFF714FD08F00800082805D1082106F5DC
:1033C000106000EB4510816008F01000102805D156
:1033D000102106F5106000EB4510816008F04000F8
:1033E000402805D1402106F5106000EB45108160B2
:1033F00008F0020002281DD12946584606F0A7FD14
:1034000005EBC50101E025E01CE004F1140000EB30
:10341000810A9AF80300012806D100208AF80300E7
:10342000E9B2204600F0D8F9022106F5106000EB61
:103430004510816008F08000802803D1294620468D
:1034400002F09CFF6D1C0298400802900298002830
:103450007FF461AF206806F0F6FD00F00040B0F1A7
:10346000004F1CD140F60400805920F0010140F6C5
:103470000400815194F8CC04012807D1002084F87D
:10348000CC0400212046FFF775FC02E0204600F046
:10349000D1FA2068406900F0004021684861206846
:1034A00006F0D1FD00F40060B0F5006F0ED140F6DB
:1034B0000800805900F0010010B1204600F012FB16
:1034C0002068406900F4006021684861206806F0C7
:1034D000BAFD00F48050B0F5805F7ED140F6040064
:1034E000805920F0010140F604008151102120682C
:1034F00006F02DFD002732E04FF67F3106F5106013
:1035000000EB4710816006F5106000EB4710006883
:1035100020F4001106F5106000EB471001604FF633
:103520007F3106F5306000EB4710816006F53060B2
:1035300000EB4710006820F4001106F5306000EB46
:103540004710016006F5306000EB4710006840F05E
:10355000006106F5306000EB471001607F1C2079A8
:10356000B842C9D840F61C00805940F0011140F61D
:103570001C008151E07B70B1D6F8840840F00B014B
:10358000C6F8841840F64400805940F00B0140F61C
:10359000440081510FE040F61400805942F22B01A3
:1035A000084340F614018851081F805940F00B0170
:1035B0004FF401608151D6F8000820F4FE60C6F88F
:1035C0000008A17904F29C42206806F06FF9206897
:1035D000406900F48050216800E000E04861206804
:1035E00006F031FD00F40050B0F5005F17D12068FF
:1035F00005F00AFF206806F0D4FCE07100F070FBD3
:103600000090E2792068009906F0A4FD204600F0C1
:10361000F9F92068406900F4005021684861206889
:1036200006F011FD00F00800082808D1204600F03F
:1036300008FA2068406900F00800216848612068A5
:1036400006F001FD00F08000802818D1DBF818009A
:1036500020F08000CBF8180001250DE005EBC50136
:1036600004F5157000EB8100C078012803D1E9B2A0
:103670002046FFF7DAFB6D1C2079A842EED82068BF
:1036800006F0E1FC00F48010B0F5801F2DD101257B
:1036900022E006F5106000EB4510D0F8009005EB35
:1036A000C50104F1140000EB81000079012812D15A
:1036B00009F00040B0F1004F0DD1012105EBC5022A
:1036C00004F1140000EB8200C170E8B240F0800108
:1036D0002046FFF7AAFB6D1C2079A842D9D82068A4
:1036E000406900F4801021684861206806F0ABFC56
:1036F00000F40010B0F5001F44D1012538E006F5B4
:10370000306000EB4510D0F8009005EBC50104F5E2
:10371000157000EB81000079012828D109F00040E4
:10372000B0F1004F23D194F8D40400F00100C9F3A4
:10373000004188421BD1012105EBC50204F515703B
:1037400000EB8200C170DBF8180040F08000CBF87D
:103750001800DBF8140000F0800040B940F60400C7
:10376000805940F4007140F60400815103E06D1C63
:103770002079A842C3D800BF2068406900F4001037
:1037800021684861206806F05EFC00F08040B0F1DE
:10379000804F08D12046FFF71AFB2068406900F0EF
:1037A000804021684861206806F04DFC00F004006C
:1037B00004280FD12068D0F8049009F004000428F0
:1037C00002D12046FFF72AFB2068406840EA090042
:1037D0002168486000BFA9E470B504460D4629463B
:1037E000D4F8E00405F024F970BD70B504460D4628
:1037F0002946D4F8E00405F03FF970BDF8B5044659
:103800000CB90120F8BD266894F8950428B9002069
:1038100084F89404204600F0A1F8032084F895046D
:10382000B6F1A04F01D10021A171206806F036F851
:10383000207C8DF8000094E80F0005F0F9FD20B120
:10384000022084F895040120DCE70021206806F0BE
:103850002FFC20B1022084F895040120D2E7002536
:1038600031E0012105EBC50204F1140000EB8200F8
:10387000417005EBC50104F1140000F8215005EB7F
:10388000C50100EB81004583002105EBC50204F171
:10389000140000EB8200017105EBC50204F1140075
:1038A00000EB8200816005EBC50204F1140000EB1F
:1038B0008200C16005EBC50204F1140000EB820038
:1038C0000161681CC5B22079A842CADC00252AE043
:1038D000002105EBC50204F5157000EB8200417074
:1038E00005EBC50104F5157000F82150002105EB2A
:1038F000C50200EB8200017105EBC50204F51570ED
:1039000000EB8200816005EBC50204F5157000EB49
:103910008200C16005EBC50204F5157000EB820062
:103920000161681CC5B22079A842D1DC207C8DF8E9
:10393000000094E80F0005F0BDFE20B1022084F8DD
:10394000950401205EE700206074012084F895044E
:10395000206805F09DFE002054E7000010B586B0F9
:103960000446142101A8FCF74FFE2068B0F1A04FD7
:1039700042D100BF002000902048006840F00100C4
:103980001E4908600846006800F00100009000BF72
:1039900000BF4FF4C050019002200290002003901D
:1039A000032004900A20059001A91548FEF7C8FFDE
:1039B00000BF1248001D006840F080000F49091D3B
:1039C000086000BF002000900C481430006840F4EC
:1039D00080400A49143108600846006800F48040BD
:1039E000009000BF00BF00BF002205214320FFF769
:1039F0006FF94320FFF758F906B010BD3038024088
:103A00000000024070B504460125E07908B90025A0
:103A100006E0E079022801D1012501E0FDF791FFE0
:103A20002946D4F8E00405F0D1F8D4F8E00405F014
:103A300077F870BD10B50446D4F8E00405F0A7F897
:103A400010BD10B50446D4F8E00405F0ABF810BD85
:103A500070B504460D4600BF94F89404012801D1C6
:103A6000022070BD012084F8940400BF65742946CB
:103A7000206806F051FB00BF002084F8940400BFCA
:103A800000BFEEE710B5044604F29C41D4F8E00410
:103A900005F0B3F810BD70B50446256800BF94F872
:103AA0009404012801D1022070BD012084F89404FF
:103AB00000BFE86800F0400030B1607B012803D10E
:103AC000A86B40F48030A863206806F011FA2068E3
:103AD00005F0CCFD00BF002084F8940400BF00BFB7
:103AE000E2E7000010B50446D4F8E00405F0E2F87F
:103AF0002068D0F8000E40F001002168C1F8000EE7
:103B0000E07A28B10348006840F0060001490860E7
:103B100010BD000010ED00E070B504460D460CB974
:103B2000012070BD5848006800F00700A84209D283
:103B300055490D700846006800F00700A84201D002
:103B40000120EEE7207800F0020002281DD1207845
:103B500000F00400042805D14C48006840F4E0500F
:103B60004A490860207800F00800082805D1474835
:103B7000006840F46040454908604448006820F00F
:103B8000F000A168084341490860207800F0010076
:103B9000A8B36068012807D13C4808380068C0F322
:103BA0004040B8B90120BCE76068022802D06068D4
:103BB000032807D1354808380068C0F3406048B989
:103BC0000120AEE7314808380068C0F3400008B96A
:103BD0000120A6E72D48006820F003006168084333
:103BE0002A490860FEF7ACFF064609E0FEF7A8FF89
:103BF000801B41F28831884202D9032091E707E017
:103C00002248006800F00C006168B0EB810FEDD134
:103C10001D48006800F00700A84209D91A490D7034
:103C20000846006800F00700A84201D0012078E7AC
:103C3000207800F00400042807D11448006820F41C
:103C4000E050E168084311490860207800F008005E
:103C5000082808D10D48006820F46040216940EA36
:103C6000C1000A49086000F061F808490968C1F319
:103C70000311074A515CC8400649086006480068BD
:103C8000FEF78EFF00204CE7003C0240083802405F
:103C900024E2000828000020200000200F220260FB
:103CA0000D4A126802F0030242600B4A126802F0E9
:103CB000F0028260084A126802F4E052C260064ACA
:103CC000126802F46042D2080261044A126802F0EB
:103CD00007020A607047000008380240003C0240BA
:103CE00001480068704700002800002000B5FFF779
:103CF000F7FF04490968C1F38221034A515CC840B7
:103D000000BD00000838024034E2000800B5FFF7AB
:103D1000E7FF04490968C1F34231034A515CC840D6
:103D200000BD00000838024034E200082DE9F047E9
:103D3000002400250026A1462548006800F00C005C
:103D400020B1042805D008283AD105E0DFF8849096
:103D500039E0DFF8849036E01D48001F006800F06D
:103D60003F041B48001F006800F4800078B11A4827
:103D70001749091F0968C1F38811A0FB01700146AA
:103D8000224600233846FCF749FB05460EE0114861
:103D90000F49091F0968C1F38811A0FB0170014692
:103DA000224600233846FCF739FB05460848001F29
:103DB0000068C0F30140401C4600B5FBF6F902E084
:103DC000DFF8109000BF00BF4846BDE8F087000054
:103DD000083802400024F400001BB700F8B5044680
:103DE0000CB90120F8BD207800F00100002874D043
:103DF000F948006800F00C0004280DD0F64800686F
:103E000000F00C00082813D1F348001F006800F4EC
:103E10008000B0F5800F0BD1EF4808380068C0F380
:103E20004040002859D06068002856D10120D9E7C9
:103E300000BF6068B0F5803F08D1E74808380068E7
:103E400040F48030E449083908601EE06068B0F54D
:103E5000A02F0DD1E0480838006840F48020DE49EA
:103E6000083908600846006840F4803008600CE0BB
:103E7000D9480838006820F48030D74908390860EC
:103E80000846006820F48020086000BF606890B198
:103E9000FEF756FE054606E0FEF752FE401B64287C
:103EA00001D903209EE7CC4808380068C0F34040A1
:103EB0000028F1D011E0FEF743FE054606E0FEF7CC
:103EC0003FFE401B642801D903208BE7C248083815
:103ED0000068C0F340400028F1D1207800F00200D3
:103EE00002285FD1BC48006800F00C0058B1BA4805
:103EF000006800F00C0008281CD1B748001F0068BB
:103F000000F48000B0B9B44808380068C0F340003D
:103F100020B1E068012801D0012063E7AE480838ED
:103F2000006820F0F800216940EAC100AA49083978
:103F3000086037E0E06800B30120A8490860FEF798
:103F4000FFFD054606E0FEF7FBFD401B022801D9F8
:103F5000032047E7A04808380068C0F34000002865
:103F6000F1D09D480838006820F0F800216940EA47
:103F7000C10099490839086014E000209749086099
:103F8000FEF7DEFD054606E0FEF7DAFD401B0228DF
:103F900001D9032026E7904808380068C0F34000A4
:103FA0000028F1D1207800F0080008282CD16069A1
:103FB000A8B101208A490860FEF7C2FD054606E067
:103FC000FEF7BEFD401B022801D903200AE7824804
:103FD0006C300068C0F340000028F1D014E00020ED
:103FE0007F490860FEF7ACFD054606E0FEF7A8FD38
:103FF000401B022801D90320F4E677486C300068A2
:10400000C0F340000028F1D1207800F0040004281B
:1040100070D1002770483830006800F0805090B9A7
:1040200000BF002000906C483830006840F080509D
:104030006949383108600846006800F080500090F7
:1040400000BF00BF01276748006800F48070B0B966
:104050006448006840F4807062490860FEF770FDB3
:10406000054606E0FEF76CFD401B022801D903203F
:10407000B8E65C48006800F480700028F2D000BF09
:10408000A068012808D154486830006840F0010059
:104090005149683108601DE0A06805280DD14E48DF
:1040A0006830006840F004004B49683108600846F9
:1040B000006840F0010008600CE047486830006884
:1040C00020F001004449683108600846006820F08B
:1040D0000400086000BFA068A8B1FEF731FD0546E6
:1040E00009E0FEF72DFD401B41F28831884202D9DC
:1040F000032077E626E0384868300068C0F34000C7
:104100000028EED013E0FEF71BFD054608E0FEF7A1
:1041100017FD401B41F28831884201D9032061E636
:104120002D4868300068C0F340000028EFD1012F0F
:1041300007D129483830006820F0805026493831AE
:10414000086000BFA069002845D02348006800F03F
:104150000C0008285DD0A069022845D100201F4925
:104160000866FEF7EDFC054606E0FEF7E9FC401B9D
:10417000022801D9032035E6174808380068C0F343
:1041800040600028F1D1D4E907010843616A40EAA0
:1041900081110122A06AC2EB500041EA00412C20AB
:1041A000005D41EA00600C49091F086001200B49CD
:1041B0000866FEF7C5FC054606E0FEF7C1FC401B9D
:1041C000022801D903200DE6034808380068C0F32F
:1041D00040600028F1D049E0083802400000474222
:1041E000800E474200700040002021490866FEF71B
:1041F000A7FC054606E0FEF7A3FC401B022801D9F8
:104200000320EFE51B480068C0F340600028F2D1AE
:104210002CE0A069012800D1E4E51648001D0668DD
:10422000A069012820D006F48001E06981421BD1F9
:1042300006F03F01206A814216D147F6C070304037
:10424000616AB0EB811F0FD106F440310122A06AF0
:10425000C2EB5000B1EB004F06D106F070612C208C
:10426000005DB1EB006F01D00120BBE50020B9E596
:10427000000047420038024070472DE9F0410446F3
:104280000E46002700BF2079012802D10220BDE898
:10429000F0810120207100BF6079012827D1022020
:1042A0006071FEF74DFC054613E0FEF749FC401B2C
:1042B00002280ED92068406800F0010048B90120AA
:1042C00060710220A06000BF0020207100BF0120AB
:1042D000DDE72068406800F001000028E5D0206894
:1042E0008068E060E06830600120607102E00420D6
:1042F000A060012700BF0020207100BF3846C6E73C
:1043000010B5044604F10C012046FFF7B6FF08B9CA
:10431000E06810BD0020FCE770B504460026206868
:10432000456805F02000202803D11020A060012658
:1043300006E005F04000402802D10820A0600126D8
:10434000012E09D1042060712046FFF795FF6FF020
:1043500060002168486070BD05F00100A8B12068C8
:10436000006820F008002168086020688068E0602C
:104370006079042809D00120607100BF00202071FD
:1043800000BF2046E16800F041F800BFE3E710B548
:1043900004460CB9012010BD607920B900202071BD
:1043A000204600F00FF8022060712068006840F09D
:1043B000040021680860012060710020A06000BF37
:1043C000E9E7000038B504460E492068884217D155
:1043D00000BF002000900C48006840F040000A49EF
:1043E00008600846006800F04000009000BF00BF71
:1043F000002205215020FEF76BFC5020FEF754FCF4
:1044000038BD00000008065034380240704710B52F
:1044100004460CB9012010BD606A38B96068B0F577
:10442000827F00D105E00021E16102E000212161ED
:1044300061610021A16294F8510028B9002084F83C
:104440005000204600F048F8022084F8510020680F
:10445000006820F0400021680860A08800F48270A5
:10446000218901F404410843A18901F40061084352
:10447000217C01F002010843217D01F00101084384
:10448000218B01F400710843217F01F038010843BA
:104490002021095D01F080010843218D01F40051C4
:1044A0000843216808600421A06901EA104094F8DB
:1044B000241001F010010843216848602068C06999
:1044C00020F400602168C86100206065012084F844
:1044D000510000209FE7000010B586B0044614216B
:1044E00001A8FCF791F84B49206888427ED100BFB3
:1044F000002000904848006840F480504649086019
:104500000846006800F48050009000BF00BF00BF64
:104510000020009040481438006840F002003E49F6
:10452000143908600846006800F00200009000BFDF
:1045300000BF00BF002000900846006840F0010066
:1045400008600846006800F00100009000BF00BF4E
:104550001820019002200290002003900320049074
:104560000520059001A92D48FEF7EAF98020019069
:104570000220029000200390032004900520059063
:1045800001A92748FEF7DCF92648274908604FF0C3
:10459000C0604860002124488160C1604FF48061A0
:1045A0000161002141618161C1614FF440310162CB
:1045B00000214162FEF7BEF808B1FDF7C2F900BF65
:1045C0001948E064846300BF164818301749086032
:1045D0004FF0C06048604021144881600021C160F4
:1045E0004FF4806101610021416100E010E08161D0
:1045F000C1614FF40031016200214162FEF79AF877
:1046000008B1FDF79EF900BF0848A064846300BFAD
:1046100006B010BD003001404438024000040240A2
:10462000000002404064024044060020A40600202E
:104630002DE9FE4F04460F4690461D460C9E012074
:104640000190FEF77DFA814694F851B060680290BF
:10465000AA46BBF1010F0BD00298B0F5827F04D1BE
:10466000A06810B9BBF1040F02D00220BDE8FE8F94
:104670001FB1B8F1000F00D00DB90120F6E700BF5F
:1046800094F85000012801D10220EFE7012084F8BE
:10469000500000BF94F85100042802D0052084F88F
:1046A000510000206065C4F83880E587A58727633E
:1046B000E586A586206460642068006800F04000FC
:1046C000402805D02068006840F04000216808605C
:1046D000E068B0F5006F52D1606810B1BAF1010F17
:1046E00009D1206B00882168C860206B801C206382
:1046F000E08E401EE0863BE02068806800F002000B
:10470000022810D1E08E70B1019801280BD1206BE6
:1047100000882168C860206B801C2063E08E401EEA
:10472000E086002001902068806800F0010068B1F8
:10473000E08F58B12068C068A16B0880A06B801C16
:10474000A063E08F401EE08701200190FEF7F8F99A
:10475000A0EB0900B0420BD3701C48B1012084F8D3
:10476000510000BF002084F8500000BF03207DE707
:10477000E08E0028C0D1E08F0028BDD152E06068F3
:1047800010B1BAF1010F09D1206B007821680873CC
:10479000206B401C2063E08E401EE0863CE02068D9
:1047A000806800F00200022810D1E08E70B10198FC
:1047B00001280BD1206B007821680873206B401C06
:1047C0002063E08E401EE086002001902068806813
:1047D00000F0010068B1E08F58B12068C068A16B9B
:1047E0000870A06B401CA063E08F401EE087012092
:1047F0000190FEF7A5F9A0EB0900B04201D3701CAF
:1048000000B94EB9012084F8510000BF002084F89F
:10481000500000BF032029E7E08E0028BFD1E08FC1
:104820000028BCD14A463146204602F04DFA40B13C
:104830002020606500BF002084F8500000BF0120E8
:1048400014E7A06850B900BF002000902068C0683D
:10485000009020688068009000BF00BF012084F8AD
:10486000510000BF002084F8500000BF606D08B107
:104870000120FBE60020F9E67047704730B502469C
:104880000B4600BF92F83C00012801D1022030BD48
:10489000012082F83C0000BF022082F83D00106831
:1048A00044681068816824F0700418680443106834
:1048B0004460184D1068A8421BD01068B0F1804FBA
:1048C00017D0154D1068A84213D0144D1068A84297
:1048D0000FD0134D1068A8420BD0124D1068A8429B
:1048E00007D0114D1068A84203D0104D1068A8429F
:1048F00005D121F0800158680143106881600120D2
:1049000082F83D0000BF002082F83C0000BF00BFDD
:10491000BDE7000000000140000400400008004026
:10492000000C00400004014000400140001800401D
:1049300010B504460CB9012010BD94F83D0028B90B
:10494000002084F83C00204600F026F8022084F87D
:104950003D00211D206802F029FC012084F846005A
:1049600000BF84F83E0001213F2001554020015541
:104970004120015500BF00BF012084F842004320C0
:104980000155442001554520015500BF012084F800
:104990003D000020D0E7000008B5144A01689142AC
:1049A0000FD100BF002100911149096841F00401B5
:1049B0000F4A11601146096801F00401009100BF1F
:1049C00013E00C4A016891420FD100BF0021009111
:1049D0000749096841F00801054A11601146096854
:1049E00001F00801009100BF00BF08BD00080040B1
:1049F00040380240000C0040014691F83D0001287B
:104A000001D001207047022081F83D001A4B086850
:104A100098421BD00868B0F1804F17D0174B086838
:104A2000984213D0164B086898420FD0154B08686F
:104A300098420BD0144B0868984207D0134B086873
:104A4000984203D0124B086898420CD108688068DD
:104A500000F00702062A0CD00868006840F0010048
:104A60000B68186005E00868006840F001000B68FA
:104A700018600020C6E7000000000140000400406C
:104A800000080040000C00400004014000400140CC
:104A900000180040014691F83D00012801D0012096
:104AA0007047022081F83D000868C06840F00100AE
:104AB0000B68D8601A4B086898421BD00868B0F1A0
:104AC000804F17D0174B0868984213D0164B0868D0
:104AD00098420FD0154B086898420BD0144B0868C9
:104AE000984207D0134B0868984203D0124B0868CD
:104AF00098420CD10868806800F00702062A0CD0A2
:104B00000868006840F001000B68186005E008685C
:104B1000006840F001000B6818600020C0E700004A
:104B2000000001400004004000080040000C00406C
:104B30000004014000400140001800402DE9F04110
:104B400004460D46002700BF94F83C00012802D11E
:104B50000220BDE8F081012084F83C0000BF022063
:104B600084F83D002068866826F0770626F47F46A4
:104B7000206886602868502833D00CDC202850D06C
:104B800004DC00284BD0102851D149E0302849D00E
:104B900040284CD139E060282DD0702807D0B0F5DE
:104BA000805F03D0B0F5005F41D10DE041E0D5E971
:104BB00002136A68206802F07AFB2068866846F073
:104BC00077062068866034E0D5E902136A682068B9
:104BD00002F06DFB2068806840F4804021688860A6
:104BE00027E0EA686968206802F052FC50212068DA
:104BF00002F068FB1DE0EA686968206802F05BFC6F
:104C00006021206802F05EFB13E0EA6869682068B2
:104C100002F03EFC4021206802F054FB09E000BF96
:104C200000BF00BF2968206802F04CFB01E00127AB
:104C300000BF00BF012084F83D0000BF002084F8C1
:104C40003C0000BF384684E7704770B504462068D2
:104C5000C5682068066906F00200022819D105F02F
:104C60000200022815D1401F216808610120207729
:104C70002068806900F0030018B12046FFF7E4FFC8
:104C800005E0204600F0F0F8204600F0A4F90020EE
:104C9000207706F00400042819D105F00400042848
:104CA00015D1C043216808610220207720688069FF
:104CB00000F4407018B12046FFF7C6FF05E020461B
:104CC00000F0D2F8204600F086F90020207706F0A8
:104CD0000800082819D105F00800082815D1C0439C
:104CE00021680861042020772068C06900F0030073
:104CF00018B12046FFF7A8FF05E0204600F0B4F801
:104D0000204600F068F90020207706F010001028F7
:104D100019D105F01000102815D1C0432168086191
:104D2000082020772068C06900F4407018B1204640
:104D3000FFF78AFF05E0204600F096F8204600F0D5
:104D40004AF90020207706F0010048B105F0010083
:104D500030B16FF0010021680861204600F0C2F90F
:104D600006F08000802809D105F08000802805D158
:104D7000C043216808612046FFF77EFD06F0400031
:104D8000402809D105F04000402805D1C0432168E2
:104D90000861204600F0B2F906F02000202809D171
:104DA00005F02000202805D1C04321680861204675
:104DB000FFF763FD70BD000010B586B004461421F6
:104DC00001A8FBF721FC2349206888421DD100BFC0
:104DD000002000902048006840F002001E49086052
:104DE0000846006800F00200009000BF00BF881570
:104DF0000190022002900020039004900220059070
:104E000001A91648FDF79CFD21E01549206888425C
:104E10001DD100BF002000900F48006840F08000C6
:104E20000D4908600846006800F08000009000BF4F
:104E300000BF4FF4E0500190022002900020039048
:104E400004900220059001A90648FDF779FD06B0FF
:104E500010BD00000008004030380240000402404D
:104E6000000C0040001C024070472DE9F041044650
:104E70000D461646002700BF94F83C00012802D1D9
:104E80000220BDE8F081012084F83C0000BF36B16B
:104E9000042E1BD0082E31D00C2E5ED145E02946C1
:104EA000206802F019FA2068806940F00800216843
:104EB00088612068806920F004002168886120688A
:104EC0008069296908432168886148E0294620688B
:104ED00002F03AFA2068806940F400602168886135
:104EE0002068806920F4806021688861206880697A
:104EF000296940EA01202168886130E0294620685C
:104F000002F060FA2068C06940F008002168C861BA
:104F10002068C06920F004002168C8612068C06969
:104F2000296908432168C86119E02946206802F010
:104F300085FA2068C06940F400602168C861206873
:104F4000C06920F480602168C8612068C06929694F
:104F500040EA01202168C86101E0012700BF00BFCD
:104F600000BF002084F83C0000BF384689E710B538
:104F700004460CB9012010BD94F83D0028B900206A
:104F800084F83C00204600F025F8022084F83D001B
:104F9000211D206802F00AF9012084F8460000BFB4
:104FA00084F83E0001213F20015540200155412059
:104FB000015500BF00BF012084F842004320015585
:104FC000442001554520015500BF012084F83D00D3
:104FD0000020D0E77047704770B504460D4615B9FC
:104FE00094F83E000BE0042D02D13F20005D06E066
:104FF000082D02D14020005D01E04120005D012824
:1050000001D0012070BD1DB9022084F83E000EE0E1
:10501000042D03D102213F20015508E0082D03D1C2
:1050200002214020015502E00221412001550122C8
:105030002946206802F02AF923492068884203D0D3
:1050400022492068884201D1012000E0002028B1D7
:105050002068406C40F40040216848641A49206888
:1050600088421BD02068B0F1804F17D018492068C3
:10507000884213D01749206888420FD0164920680B
:1050800088420BD011492068884207D01349206814
:10509000884203D01249206888420CD12068806879
:1050A00000F00706062E0CD02068006840F00100D2
:1050B0002168086005E02068006840F00100216870
:1050C000086000209EE7000000000140000401404D
:1050D0000004004000080040000C00400040014077
:1050E0000018004010B5044603492068884201D1E9
:1050F000FDF72CFD10BD00000020004070477047F8
:10510000704700002DE9F84F0446206805682068C4
:10511000C668206847694FF00009CA4605F00F09C4
:10512000B9F1000F0AD105F0200038B106F02000D7
:1051300020B1204602F090FABDE8F88FB9F1000FD7
:105140007CD007F0010018B906F49070002875D0E3
:1051500005F0010030B106F4807018B1606C40F0C9
:105160000100606405F0040030B107F0010018B1DF
:10517000606C40F00200606405F0020030B107F09E
:10518000010018B1606C40F00400606405F0080094
:1051900048B106F0200010B907F0010018B1606CAA
:1051A00040F008006064606C002846D005F02000E4
:1051B00028B106F0200010B1204602F04DFA206818
:1051C0004069C0F3801A606C00F0080010B9BAF1B1
:1051D000000F2DD0204602F0E6F92068406900F06B
:1051E0004000402820D100BF00BF2168143151E8A1
:1051F000001F21F040002168143141E80002002A1C
:10520000F3D100BFE06B50B17F48E16B0865E06B04
:10521000FDF75BF988B1E06B016D88470DE0204632
:10522000FFF76EFF09E009E02046FFF769FF04E0A1
:105230002046FFF765FF002060647DE7206B0128B2
:1052400078D105F01000002874D006F01000002876
:10525000FAD000BF0020009020680068009020680D
:105260004068009000BF00BF2068406900F0400027
:10527000402870D1E06B006840681FFA80F8B8F1F0
:10528000000F58D0A08D404555DDA4F82E80E06B6E
:10529000C069B0F5807F43D000BF00BF21680C31EA
:1052A00051E8001F21F4807021680C3141E80002B0
:1052B000002AF3D100BF00BF00BF2168143151E8BC
:1052C000001F21F001002168143141E80002002A8A
:1052D000F3D100BF00BF00BF2168143151E8001FA7
:1052E00021F040002168143141E80002002AF3D186
:1052F00000BF202084F842000020206300BF00BFD0
:1053000021680C3151E8001F21F0100021680C3198
:1053100041E80002002AF3D100BFE06BFDF77FF8FF
:1053200002206063A08DE28D801A81B22046FFF7D3
:10533000E6FE0EE052E0A08D40450AD1E06BC06968
:10534000B0F5807F05D102206063A18D2046FFF774
:10535000D6FEF1E6FFE7A08DE18D401A1FFA80F836
:10536000E08DD0B3B8F1000F37D000BF00BF216887
:105370000C3151E8001F21F4907021680C3141E894
:105380000002002AF3D100BF00BF00BF2168143122
:1053900051E8001F21F001002168143141E80002AA
:1053A000002AF3D100BF202084F8420000202063AF
:1053B00000BF00BF21680C3151E8001F21F0100030
:1053C00021680C3141E80002002AF3D100BF02201D
:1053D000606341462046FFF792FEADE605F080008F
:1053E00030B106F0800018B1204602F0C9FAA3E6F9
:1053F00005F0400030B106F0400018B1204602F040
:1054000008F999E600BF97E6DF74000810B5044676
:105410000CB9012010BDA06900B100E000BF94F8F4
:10542000410028B9002084F84000204600F02AF806
:10543000242084F841002068C06820F400502168CE
:10544000C860204602F086F92068006920F4904088
:10545000216808612068406920F02A0021684861BD
:105460002068C06840F400502168C8600020606473
:10547000202084F8410084F842000020606300BFCF
:10548000C8E7000010B586B00446142101A8FBF758
:10549000BBF8C049206888427ED100BF0020009040
:1054A000BD48006840F01000BB490860084600682D
:1054B00000F01000009000BF00BF00BF002000906F
:1054C000B5481438006840F00200B3491439086048
:1054D0000846006800F00200009000BF00BF00BF57
:1054E000002000900846006840F00100086008466F
:1054F000006800F00100009000BF00BF8020019014
:1055000002200290002003900320049007200590C1
:1055100001A9A248FDF714FA4FF40070019002208F
:10552000029000200390032004900720059001A919
:105530009B48FDF705FA9B489B4908604FF00060C7
:105540004860002198488160C1604FF4806101612A
:105550000021416181614FF48071C1614FF440319C
:10556000016200214162FDF7E5F808B1FCF7E9F9B5
:1055700000BF8D48E063846300BF8A4830308B49A8
:1055800008604FF000604860402188488160002139
:10559000C1604FF4806100E01CE0016100214161C5
:1055A0008161C1614FF44031016200214162FDF728
:1055B000C1F808B1FCF7C5F900BF7C48A06384635B
:1055C00000BF002205212520FDF782FB2520FDF7E5
:1055D0006BFBDCE07649206888425CD100BF00208C
:1055E00000906D48001F006840F480206A49091F40
:1055F00008600846006800F48020009000BF00BFEB
:1056000000BF0020009064481438006840F0040097
:105610006149143908600846006800F004000090F1
:1056200000BF00BF4FF440600190022002900120B3
:105630000390032004900720059001A95D48FDF721
:105640007FF95D485D4908604FF0006048600021C7
:105650005A488160C1604FF480610161002141615D
:1056600081614FF48071C1610902016200214162D0
:10567000FDF760F808B1FCF764F900BF4F48E0633C
:10568000846300BF002205212720FDF721FB27208E
:10569000FDF70AFB7BE04A492068884277D100BFCA
:1056A000002000903C48006840F020003A49086023
:1056B0000846006800F02000009000BF00BF00BF57
:1056C0000020009034481438006840F0400032490F
:1056D000143908600846006800F04000009000BFE0
:1056E00000BF4FF4844001900220029000200390FC
:1056F000032004900820059001A93248FDF720F905
:1057000028486038304908608005486000212E48EC
:105710008160C1604FF4806101610021416181615C
:105720004FF48071C161002101624162FDF702F80E
:1057300008B1FCF706F900BF2348E063846300BFAB
:1057400018481830214908604FF020604860402117
:105750001E4881600021C1604FF480610161002119
:1057600041618161C16101624162FCF7E3FF08B1FF
:10577000FCF7E7F800BF1548A063846300BF002270
:1057800005214720FDF7A4FA4720FDF78DFA06B062
:1057900010BD0000001001404438024000040240E7
:1057A00000000240886402406C080020CC08002001
:1057B0000048004000080240286002402C090020F8
:1057C00000140140001802408C090020EC09002060
:1057D00070470000F7B50446154694F841002028AC
:1057E0003ED1019800B10DB90120FEBD01982062A3
:1057F000A584E58400206064212084F841001948D4
:10580000A16BC8631848A16B08641848A16BC864F1
:105810000020A16B086501AE23681A1D31682B4674
:10582000A06BFDF730F830B110206064202084F8C0
:1058300041000120D9E76FF040002168086000BFF7
:1058400000BF2168143151E8001F41F08000216839
:10585000143141E80002002AF3D100BF0020C4E760
:105860000220C2E74175000899750008F17400082C
:105870007047704710B50248FEF74EFD10BD00009E
:10588000DC05002000BFFEE730B50B46002100BF5D
:1058900016E00A24B4EB107F05D9302404EB107411
:1058A00003F8114005E0412404EB10740A3C03F8AE
:1058B0001140000100254C00641C1D554C1CE1B238
:1058C0009142E6DB30BD00002DED088B05F002F9BA
:1058D000D0E007F01DF80028FAD10024C7E06648A0
:1058E00050F82400000E00EE100AB8EE400AB0EEA8
:1058F000408A614850F82400C0F3074000EE100AC7
:10590000B8EE400AF0EE408A5B4830F82400C0F35D
:10591000072000EE100AB8EE400AB0EE409A564852
:1059200010F8240000EE100AB8EE400AF0EE409A9B
:105930005149601C51F82000000E00EE100AF8EEEC
:10594000400A084650F82400000E00EE100AB8EE97
:10595000400A30EEC00AB0EE40AA601C51F82000A8
:10596000C0F3074000EE100AF8EE400A084650F86F
:105970002400C0F3074000EE100AB8EE400A30EEF3
:10598000C00AF0EE40AA601C31F82000C0F30720E6
:1059900000EE100AF8EE400A084630F82400C0F382
:1059A000072000EE100AB8EE400A30EEC00AB0EE52
:1059B00040BA601C11F8200000EE100AF8EE400A10
:1059C000084610F8240000EE100AB8EE400A30EE47
:1059D000C00AF0EE40BA9FED290ACAEE000AB0EE06
:1059E00060AA9FED260ACAEE800AF0EE60AA9FED3B
:1059F000230ACBEE000AB0EE60BA9FED200ACBEE90
:105A0000800AF0EE60BA00252DE038EE0A0AB0EE0A
:105A1000408A38EEAA0AF0EE408A39EE0B0AB0EE60
:105A2000409A39EEAB0AF0EE409ABCEEC80A10EE8E
:105A3000100A0106BCEEE80A10EE100A41EA004125
:105A4000BCEEC90A10EE100A41EA0020BCEEE90AD9
:105A500010EE101A40EA0106304605F073F80320F4
:105A600006F048FB6D1CB5F5FA7FCEDB641C062CF6
:105A7000FFF635AF2DE70000F40000200000FA43E8
:105A800010B50E480E4908600320486000210C48FC
:105A90008160C1604FF4102101614FF40011416138
:105AA0000021017641768176C17601774177FCF756
:105AB000CDFA08B1FBF745FF10BD000000640040BF
:105AC0008C05002010B50E480E4908600320486080
:105AD00000210C488160C1604FF4102101614FF436
