:020000040800F2
:10000000488B002029030008F94B0008DB44000856
:10001000F54B0008D1090008B55F0008000000009A
:10002000000000000000000000000000690200085D
:100030008D14000800000000C5020008AD52000841
:100040004303000843030008430300084303000878
:100050004303000843030008430300084303000868
:100060004303000843030008430300084303000858
:100070001911000843030008430300084303000864
:100080004303000843030008430300084303000838
:10009000D509000843030008430300084303000890
:1000A0004303000843030008430300084303000818
:1000B0004303000843030008430300084303000808
:1000C00043030008430300084303000843030008F8
:1000D00043030008815F000843030008915F0008A4
:1000E00043030008430300084303000843030008D8
:1000F00043030008F15500084303000843030008C8
:1001000043030008430300084303000843030008B7
:1001100043030008430300084303000843030008A7
:10012000430300082911000839110008491100088B
:100130004303000843030008430300084303000887
:10014000E5090008430300084303000843030008CF
:10015000591100086911000879110008A55F00080D
:100160004303000843030008430300084303000857
:100170004303000843030008430300080000000095
:10018000430300084303000800F002F800F05CF8A5
:100190000AA090E8000C82448344AAF10107DA45E2
:1001A00001D100F051F8AFF2090EBAE80F0013F0D8
:1001B000010F18BFFB1A43F001031847D8A3000032
:1001C000F8A300000A444FF0000C10F8013B13F0B4
:1001D000070408BF10F8014B1D1108BF10F8015BA0
:1001E000641E05D010F8016B641E01F8016BF9D193
:1001F00013F0080F1EBF10F8014BAD1C0C1B09D1EA
:100200006D1E58BF01F801CBFAD505E014F8016B5B
:1002100001F8016B6D1EF9D59142D6D370470000ED
:100220000023002400250026103A28BF78C1FBD8FF
:10023000520728BF30C148BF0B6070471FB509F097
:10024000C6FE1FBD10B510BD00F09EF91146FFF7A8
:10025000F5FF07F0BBFB00F0BCF903B4FFF7F2FFBA
:1002600003BC00F0BFF900002C4B19680868B0E827
:10027000F04F80F30988BFF36F8F4FF0000080F3D9
:10028000118870470000000008480068006880F38B
:1002900008884FF0000080F3148862B661B6BFF39F
:1002A0004F8FBFF36F8F00DF00BF00BF08ED00E08E
:1002B000DFF80C00016841F470010160704700BF75
:1002C00088ED00E0EFF30980BFF36F8F134B1A68DE
:1002D0001EF0100F08BF20ED108A20E9F04F1060CB
:1002E00009B44FF0500080F31188BFF34F8FBFF374
:1002F0006F8F08F075FD4FF0000080F3118809BC86
:1003000019680868B0E8F04F1EF0100F08BFB0EC95
:10031000108A80F30988BFF36F8F70472800002090
:10032000EFF30580704700000948804709480047FF
:10033000FEE7FEE7FEE7FEE7FEE7FEE7FEE7FEE795
:10034000FEE7FEE704480549054A064B70470000F2
:100350009553000889010008484B0020488B002075
:10036000486B0020486B002053EA020C00F06980C3
:100370002DE9F04B4FF00006002B1FBFB3FA83F5B9
:1003800003FA05F424FA05F65E4012BF1643B2FAEA
:1003900082F502FA05F4C5F120051EBF22FA05FC1C
:1003A00044EA0C04203556EA044C4FEA144418BFC2
:1003B000641C4FF000084FF00009904271EB030CF1
:1003C00039D3002919BFB1FA81F701FA07F6B0FA5B
:1003D00080F700FA07F6C7F120071EBF20FA07FCD6
:1003E00046EA0C062037B6FBF4FCA7EB0507103FE6
:1003F00007F01F0BCBF120060CFA0BFB2CFA06F6CC
:1004000044BFB3460026202FA4BF5E464FF0000B2A
:100410005BEA060C08BF4FF0010B19EB0B09ABFBB5
:10042000027C48EB0608C01B06FB02CC0BFB03CC8E
:1004300071EB0C01C1E70B46024641464846BDE858
:10044000F08B13B54FF000004FF00001AFF30080C8
:10045000BDE81C40704710B5203AC0F00B80B1E8F1
:100460001850203AA0E81850B1E81850A0E81850E9
:10047000BFF4F5AF5FEA027C24BFB1E81850A0E8F2
:10048000185044BF18C918C0BDE810405FEA827C0C
:1004900024BF51F8043B40F8043B08BF7047D20723
:1004A00028BF31F8023B48BF11F8012B28BF20F8C4
:1004B000023B48BF00F8012B704702F0FF0343EAFC
:1004C000032242EA024200F002B84FF0000204297F
:1004D000C0F0128010F0030C00F01B80CCF1040C73
:1004E000BCF1020F18BF00F8012BA8BF20F8022BA7
:1004F000A1EB0C0100F00DB85FEAC17C24BF00F84D
:10050000012B00F8012B48BF00F8012B70474FF07A
:10051000000200B5134694469646203922BFA0E853
:100520000C50A0E80C50B1F12001BFF4F7AF09075F
:1005300028BFA0E80C5048BF0CC05DF804EB890050
:1005400028BF40F8042B08BF704748BF20F8022B93
:1005500011F0804F18BF00F8012B704770477047AB
:10056000704710B500F008F8006810BD10B50446DB
:1005700000F002F8046010BD00487047E44A002013
:1005800000487047E44A00207546FFF7F9FFAE4681
:1005900005006946534620F00700854618B020B58F
:1005A000FFF7D0FEBDE820404FF000064FF00007F7
:1005B0004FF000084FF0000B21F00701AC46ACE80B
:1005C000C009ACE8C009ACE8C009ACE8C0098D4678
:1005D000704710B50446AFF300802046BDE81040D8
:1005E000FFF73BBE01491820ABBEFEE72600020024
:1005F0007047000010B501221021024802F056F8A1
:1006000010BD00000000024010B500221021024879
:1006100002F04CF810BD00000000024010B50122AD
:100620001146024802F042F810BD000000040240EA
:1006300010B500220121024802F038F810BD000078
:100640000004024010B50446FFF7DEFF922000F0E0
:10065000A3F906229549122000F07EF9FFF7CAFFA0
:1006600092484078000200B29049097808439049C6
:1006700008800846B0F9000000EE100AB8EEC00A83
:100680008C48D0ED000A20EE200AD4ED080A20EEB6
:10069000200A84ED000A8548C078000200B2834930
:1006A00089780843824908800846B0F9000000EEC6
:1006B000100AB8EEC00A7F48D0ED000A20EE200AEA
:1006C000D4ED080A20EE200A84ED010A774840792B
:1006D000000200B275490979084375490880084647
:1006E000B0F9000000EE100AB8EEC00A7148D0ED73
:1006F000000A20EE200AD4ED080A20EE200A84ED3C
:10070000020AFFF795FF08226849002000F024F94B
:10071000FFF784FF654800780F284FD166480078BE
:10072000F0B36248C078000200B26049897808439B
:100730005F49088094ED090A0846B0F9000000EE10
:10074000900AF8EEE00A5D4890ED001A10EE810A7A
:1007500084ED030A55484079000200B253490979F3
:1007600008435349088094ED0A0A0846B0F900008E
:1007700000EE900AF8EEE00A504890ED001A10EEF4
:10078000810A84ED040A4948C079000200B2474951
:10079000897908434649088094ED0B0A084600E031
:1007A0000DE0B0F9000000EE900AF8EEE00A4348D0
:1007B00090ED001A10EE810A84ED050A44E03B48F2
:1007C000C078000200B23949897808433849088066
:1007D0000846B0F9000000EE100AB8EEC00A37482B
:1007E000D0ED000A20EE200A84ED030A2F4840795C
:1007F000000200B22D49097908432D4908800846B6
:10080000B0F9000000EE100AB8EEC00A2B48D0ED97
:10081000000A20EE200A84ED040A2448C079000270
:1008200000B2224989790843214908800846B0F975
:10083000000000EE100AB8EEC00A2048D0ED000A11
:1008400020EE200A84ED050AFFF7DEFEA22000F06C
:10085000A3F802221549222000F07EF8FFF7CAFE15
:1008600012480078C0001149497840EA61101049E7
:1008700008800846B0F90000B0F5806F05DB084637
:100880000088A0F5006000B208800948B0F90000B7
:1008900000EE100AF8EEC00AB4EE001AB3EE070A32
:1008A00000EE810A84ED070A10BD0000EE01002071
:1008B000F6010020B0010020C0010020B40100209A
:1008C00070B504460D461C48046000201B490870A2
:1008D00006F0FAFB1949097808431849087006F030
:1008E000A9FC164909780843144908701DB1144839
:1008F00000F056F91CE09FED130A114880ED090A3B
:100900009FED110A80ED0A0A9FED0F0A80ED0B0A98
:100910009FED0E0A80ED0C0A90ED0C0ADFED0C0A3B
:1009200080EE801A80ED081A9FED0A0A80ED060A13
:100930000248007870BD0000F8010020BA010020D4
:10094000804A0020AC38223BB016CE393F161B41FE
:10095000C3F51C410000204270B506460C46154602
:1009600046F0800000F018F806E0552000F014F87A
:100970002070641C681EC5B2002DF6D170BD70B524
:1009800004460D4644F0800000F006F8552000F0C3
:1009900003F8287070BD000001B582B04FF47A7082
:1009A000012301AA02A900900348006802F05EFC3E
:1009B0009DF804000EBD0000F801002070B505464A
:1009C0000C462846FFF7E8FF2046FFF7E5FF70BD1D
:1009D00000BFFEE710B5024800F09DFF10BD00000B
:1009E0005404002010B5024800F095FF10BD00002F
:1009F0007C04002070B505460C4604B105B970BDF5
:100A00002078A6280ED006DC902825D09C2807D078
:100A1000A22823D105E0A82805D0C0281ED11CE0BB
:100A200000BF00BF00BF607840B22870A078E178B6
:100A300040EA012000B268802079617940EA012013
:100A400000B2A880A079E17940EA0120E88000F0B6
:100A500057FC85ED020A02E001E000E000BF00BFA4
:100A600000BFCCE738B505460C46104805600020AD
:100A70000E498860C8600820086120780C49087019
:100A800060784870A0788870E078C8702079087124
:100A900060794871A0798871E079C8716B460A461F
:100AA0000249044800F037FD38BD00005C4A0020D0
:100AB0009D0100207C040020F8B507460C46154631
:100AC0001E464FF400700D49086000208860C86021
:100AD00008200861380A0A4908704F70200A887097
:100AE000CC70280A08714D71300A8871CE716B463E
:100AF0000A460249034800F00EFDF8BDFC490020FB
:100B00007D0100205404002017B581B0044613482D
:100B10000460002011498860C86008200861A22094
:100B20000F490870002048709DF8080088709DF8F3
:100B30000900C8709DF80C0008719DF80D004871FF
:100B40009DF80E0088719DF80F00C8716B460A462B
:100B50000249044800F0DFFC1FBD0000444A0020A9
:100B6000950100205404002010B506F0EFFE09495D
:100B70000860002406E0E0B206F0DCFE064941F819
:100B80002400641C042CF6DB06F0E8FE0349086030
:100B900010BD00006C010020EC4900207001002015
:100BA00070B52DED048B88B00446002006900790A8
:100BB00000F0A6FBFE4880ED000A00BF00F0A0FB9D
:100BC000FB48D0ED000A30EE600AF2EE040AB4EE03
:100BD000E00AF1EE10FA14DD9FEDF60A84ED090A41
:100BE0009FEDF50A84ED0A0A9FEDF30A84ED0B0AE6
:100BF0009FEDF20A84ED0C0A9FEDF10A84ED060ADE
:100C000055E29FEDF00A00F05DFB9FEDEF0A84EDE9
:100C10000C0A9FEDED0A84ED090A9FEDEB0A84EDC5
:100C20000A0A9FEDE90A84ED0B0A002673E1FFF73B
:100C3000EBFC9220FFF7B0FE062206A91220FFF778
:100C40008BFEFFF7D7FC9DF81900000200B29DF85B
:100C5000181040EA010500EE105AB8EEC00ADB4851
:100C6000D0ED000A20EE200A84ED000A9DF81B005A
:100C7000000200B29DF81A1040EA010500EE105A79
:100C8000B8EEC00AD148D0ED000A20EE200A84ED6B
:100C9000010A9DF81D00000200B29DF81C1040EAF8
:100CA000010500EE105AB8EEC00AC848D0ED000A9F
:100CB00020EE200A84ED020AD4ED000A60EEA00ABC
:100CC00094ED011AD4ED011A41EE210A94ED021AB5
:100CD000D4ED021A41EE210AB0EE600A05F045FD9E
:100CE000B0EE408A94ED0C0A30EE080A84ED0C0A4E
:100CF000FFF79EFC082206A90020FFF72DFEFFF754
:100D00008DFC9DF818000F2850D19DF81B000002A3
:100D100000B29DF81A1040EA010500EE105AB8EE34
:100D2000C00AAB48D0ED000A20EE200A84ED030A89
:100D300094ED090AD4ED030A30EE200A84ED090A85
:100D40009DF81D00000200B29DF81C1040EA01054C
:100D500000EE105AB8EEC00A9D48D0ED000A20EE11
:100D6000200A84ED040A94ED0A0AD4ED040A30EE58
:100D7000200A84ED0A0A9DF81F00000200B29DF8C7
:100D80001E1040EA010500EE105AB8EEC00A904865
:100D9000D0ED000A20EE200A84ED050A94ED0B0A3E
:100DA000D4ED050A30EE200A84ED0B0A06BBF0EE06
:100DB000488AB0EE489A002017E004F10C0101EBDC
:100DC000800191ED000A03A901EB800181ED000A89
:100DD00004F10C0101EB800191ED000A694601EB81
:100DE000800181ED000A411CC8B20328E5DB49E01F
:100DF000B4EEE88AF1EE10FA01DDF0EE488AB4EEC6
:100E0000C98AF1EE10FA01D2B0EE489A002037E01C
:100E100004F10C0101EB800191ED000A03A901EB43
:100E20008001D1ED000AB4EEE00AF1EE10FA0ADD1D
:100E300004F10C0101EB800191ED000A03A901EB23
:100E4000800181ED000A04F10C0101EB800191EDBC
:100E5000000A694601EB8001D1ED000AB4EEE00A18
:100E6000F1EE10FA0AD204F10C0101EB800191EDD0
:100E7000000A694601EB800181ED000A411CC8B2FD
:100E80000328C5DB38EEC90A524880ED000A00206D
:100E900012E003A901EB800191ED000A694601EB24
:100EA0008001D1ED000A30EE600A4B4901EB800170
:100EB00081ED000A411CC8B20328EADB454890EDE9
:100EC000000AF6EE000AB4EEE00AF1EE10FA1BDCBE
:100ED000414890ED000ADFED410AB4EEE00AF1EE80
:100EE00010FA11DC90ED010ADFED3C0AB4EEE00AE5
:100EF000F1EE10FA08DC90ED020ADFED380AB4EEEC
:100F0000E00AF1EE10FA00DD0AE09FED350A00F08C
:100F1000D9F9701C86B2334800888642FFF687AE46
:100F200000BFD4ED0C0A2F48008800EE100AB8EE7E
:100F3000400A80EE801A84ED0C1A002015E004F1BE
:100F4000240101EB8001D1ED000A2649098800EE59
:100F5000101AB8EE400A80EE801A04F1240101EB69
:100F6000800181ED001A411CC8B20328E7DBFFF7BE
:100F70004BFBA220FFF710FD022206A92220FFF75B
:100F8000EBFCFFF737FB9DF81800C0009DF8191027
:100F900040EA6115B5F5806F02DBA5F5006005B28A
:100FA00000EE105AF8EEC00AB4EE001A1CE0000081
:100FB000E8010020AC38223BB016CE393F161B4169
:100FC000000020420AD7A33B00000000B00100202F
:100FD000B4010020BC010020744A00209A99193EF7
:100FE0006F12033AEC010020B3EE070A00EE810A0B
:100FF00084ED060A34480088401C00B2324908805B
:10100000324890ED000AF6EE000AB4EEE00AF1EE86
:1010100010FA3FF7D3AD94ED0C0ADFED2D0A30EE58
:10102000600AB0EEC00AF6EE000AB4EEE00AF1EE95
:1010300010FAEEDC274890ED000A5FED180AB4EED6
:10104000E00AF1EE10FAE4DC90ED010A5FED1D0A12
:10105000B4EEE00AF1EE10FADBDC90ED020A5FED8F
:10106000210AB4EEE00AF1EE10FAD2DC94ED090A9E
:10107000B0EEC00ADFED180AB4EEE00AF1EE10FAA5
:10108000C7DC94ED0A0AB0EEC00ADFED130AB4EE35
:10109000E00AF1EE10FABCDC94ED0B0AB0EEC00AE7
:1010A000DFED0D0AB4EEE00AF1EE10FAB1DC00BF9C
:1010B00094ED0C0ADFED090A80EE801A84ED081A1F
:1010C00008B0BDEC048B70BDC2010020BC01002043
:1010D000CDCC1C41744A00200AD7233CC3F51C41E7
:1010E00006F082F906F0AEFCFFF73EFD06F032FC9A
:1010F000054606F037FC064606F0F6FB044609E016
:101100003146284606F0C0F9204606F0FBFC0120D7
:1011100006F04AFFF4E7000010B5024800F0A6FF11
:1011200010BD0000E407002010B5024800F09EFF4B
:1011300010BD00004408002010B5024800F096FFE2
:1011400010BD0000FC04002010B5024800F08EFF26
:1011500010BD00005C05002010B5024800F086FFBD
:1011600010BD00002407002010B5024800F07EFFEB
:1011700010BD0000A408002010B5024800F076FF62
:1011800010BD00008407002001460878103818239D
:10119000B0FBF3F20848805CC865032A05D90868EB
:1011A0006FF30900001D886503E008686FF309000C
:1011B0008865886D7047000070A000080146002017
:1011C0008A6A8B69CBB932B1012A0DD0022A03D0C9
:1011D000032A10D10EE000BFCB6A03F08073B3F195
:1011E000807F00D1012007E0CB6AB3F1C07F00D13E
:1011F000012001E000E000BF34E08B69B3F5005F3F
:101200001AD132B1012A07D0022A03D0032A11D100
:101210000AE000BF01200EE0CB6A03F08073B3F157
:10122000807F00D1012006E0CB6AB3F1C07F00D1FE
:10123000012000E000BF15E032B1012A05D0022AEA
:1012400004D0032A0CD103E000BF00BF012008E056
:10125000CB6A03F08073B3F1807F00D1012000E0FE
:1012600000BF00BF704730B50468246824F48024B0
:1012700005682C60046863608468402C04D10468AD
:10128000A2600468E16003E00468A1600468E260B1
:1012900030BD000008B50848406800900749009834
:1012A0000968884204D206480068401C0449086066
:1012B00002490098086008BD001000E0B00000205E
:1012C000AC0000200C494868F0EE400A00BF0A4913
:1012D0004968091A01EE101AF8EE411A074991ED12
:1012E000001AB8EE411A20EE811AF4EEC11AF1EE9E
:1012F00010FAECD370470000001000E0A0000020BE
:1013000010B52DED028B00F059F80F4890ED000A52
:10131000B8EE400A808800EE900AF8EE600A9FED71
:101320000B1A00EE810A0848C08800EE900AF8EE19
:10133000600A9FED071A00EE810AB0EE408AB0EE17
:10134000480ABDEC028B10BD980000206F12833A52
:10135000BD3786351249096841F08071104A116025
:101360000021104A51601146096841F001011160E5
:101370000D4941430D4A1160114609684FF47A72D4
:10138000B1FBF2F10A4A116008490968064AB1FB4B
:10139000F2F1084A11600021074A1160704700000D
:1013A000FCED00E0001000E040420F00A000002033
:1013B000A4000020A8000020AC00002038B5294877
:1013C00040680090FFF766FF274800684FF0FF3144
:1013D000A0FB01310098181841F10001234A03C213
:1013E000234800232149026803C9FEF7BDFF214AB3
:1013F00003C220480CC81E4800680024A2FB001548
:1014000003FB005002FB04021848D0E90030591ACF
:1014100060EB0200184AC2E900101648006817493C
:101420000860174800231449026803C9FEF79CFFAF
:1014300012498880084680881149096841430E484E
:10144000D0E90030591A60F100000E4AC2E90010DC
:101450000D4800230B49026803C9FEF785FF0749C1
:10146000C88038BD001000E0AC000020B8000020AB
:10147000A0000020C0000020C8000020980000202C
:10148000A4000020D0000020A8000020704772B601
:1014900000BFFEE730B5034613B94FF6FF7030BD0D
:1014A00009E013F8014B82EA0400C0B2054D35F89B
:1014B000100080EA2222081EA1F10101F1D110469C
:1014C000EDE7000094A1000830B5034605E013F8ED
:1014D000010B80EA02040448025D081EA1F101012B
:1014E000F5D1104630BD000091A0000810B50246AD
:1014F00092F82030012B01D0022B06D110684069F0
:10150000084314686061002010BD506A40F48020D8
:1015100050620120F8E7F0B504460D461E4694F8E7
:10152000207020688368A86800B900E000BF012F20
:1015300001D0022F7DD103F0806030B903F000604C
:1015400018B903F0805000287ED0C3F30161012058
:1015500088403060A86860B9B5F800C0E86840EA23
:101560004C5C206800F5C07000EB0110C0F800C0B2
:101570000FE0D5E901C040EACC00D5F80CC040EA44
:101580000C00D4F800C00CF5C07C0CEB011CCCF8AE
:101590000000D5F810C0206800F5C07000EB011005
:1015A000C0F804C0287D01280ED1206800F5C07065
:1015B00000EB0110406840F4807C206800F5C070AA
:1015C00000EB0110C0F804C0D079000692F806C004
:1015D00040EA0C4092F805C040EA0C2092F804C0A2
:1015E00040EA0C00D4F800C00CF5C07C0CEB011CE8
:1015F000CCF80C00D078000692F802C040EA0C400B
:1016000092F801C040EA0C2092F800C040EA0C00B9
:10161000D4F800C00CF5C07C0CEB011CCCF8080021
:10162000206800F5C07000EB0110006840F0010C6C
:1016300001E00FE008E0206800F5C07000EB011049
:10164000C0F800C00020F0BD606A40F40010606285
:101650000120F8E7606A40F4802060620120F2E730
:10166000F0B504460A4694F82050012D01D0022D11
:101670007ED1424901F50071086840F00100086020
:10168000086820F47C5008600868566A40EA062022
:101690000860107D00F01F06012000FA06F3C869FB
:1016A0009843C861A1F50071D069C8B9D1F80C029E
:1016B0009843C1F80C02908880B2968940EA0646A9
:1016C00001F51070576940F83760108880B21689AC
:1016D00040EA064601F51070576900EBC700466006
:1016E000D069012819D1D1F80C021843C1F80C02B5
:1016F000908880B2168840EA064601F51070576956
:1017000040F83760908980B2168940EA064601F5B4
:101710001070576900EBC7004660906928B9D1F88E
:1017200004029843C1F8040204E0D1F8040218430B
:10173000C1F80402106928B9D1F814029843C1F81D
:10174000140204E0D1F814021843C1F81402106A1C
:10175000012804D1D1F81C021843C1F81C02D1F8A9
:10176000000220F00100C1F800020020F0BDFFE7F8
:10177000606A40F4802060620120F7E70064004066
:10178000704770B5044694F82050012D01D0022D09
:101790007DD151B92068C06800F0030080B9606A4B
:1017A00040F400106062012070BD2068006900F004
:1017B000030028B9606A40F4001060620120F3E77A
:1017C000206800F5D87000EB0110006800F00400FC
:1017D0009060906840B9206800F5D87000EB011067
:1017E0000068400D106007E0206800F5D87000EB3D
:1017F00001100068C0085060206800F5D87000EB48
:101800000110006800F00200D060206800F5D87078
:1018100000EB0110406800F00F00082802D30820F8
:10182000106108E0206800F5D87000EB01104068F6
:1018300000F00F001061206800F5D87000EB011077
:10184000406800F47F40000A9061206800F5D8707D
:1018500000EB01104068000C5061206800F5D87062
:1018600000EB011080681870206800F5D87000EB5C
:101870000110806800F47F40000A5870206800F56D
:10188000D87000EB0110806800F47F0000E03CE0BD
:10189000000C9870206800F5D87000EB011080688B
:1018A000000ED870206800F5D87000EB0110C068F9
:1018B0001871206800F5D87000EB0110C06800F4C2
:1018C0007F40000A5871206800F5D87000EB0110C5
:1018D000C06800F47F00000C9871206800F5D87093
:1018E00000EB0110C068000ED87131B92068C068E3
:1018F00040F020002668F06005E02068006940F0B4
:1019000020002668306100204EE7606A40F48020A5
:101910006062012048E72DE9F05F04460025206859
:1019200046692068D0F80490206887682068D0F85D
:101930000CA02068D0F810B02068D0F8188006F00D
:101940000100002855D007F00100C0B10120216836
:10195000886007F0020018B1204600F016FB0EE088
:1019600007F0040010B145F4006508E007F0080036
:1019700010B145F4805502E0204600F005FB07F465
:101980008070C8B14FF480702168886007F40070DF
:1019900018B1204600F0FBFA0EE007F4806010B1A9
:1019A00045F4005508E007F4006010B145F48045A7
:1019B00002E0204600F0EAFA07F48030C8B14FF4A4
:1019C00080302168886007F4003018B1204600F0AC
:1019D000E0FA0EE007F4802010B145F4004508E07D
:1019E00007F4002010B145F4803502E0204600F0F5
:1019F000CFFA06F0080038B10AF0100020B145F423
:101A0000007510202168C86006F0040040B10AF09B
:101A1000080028B108202168C860204600F00CFAB0
:101A200006F0020038B12068C06800F0030010B171
:101A3000204600F003FA06F0400038B10BF0100029
:101A400020B145F4806510202168086106F020006F
:101A500040B10BF0080028B1082021680861204639
:101A600000F060FA06F0100038B12068006900F05C
:101A7000030010B1204600F056FA06F4003040B1E1
:101A800009F0100028B1102021684860204600F0BD
:101A90004BFA06F4803040B109F0080028B1082064
:101AA00021684860204600F075FA06F4004088B3CB
:101AB00009F0040078B306F4807020B108F001004A
:101AC00008B145F0010506F4007020B108F00200ED
:101AD00008B145F0020506F4806020B108F004006A
:101AE00008B145F0040506F40060A0B108F07000EC
:101AF00088B108F07000402817D006DC10280BD001
:101B000020280CD0302819D10CE0502810D06028A3
:101B100014D110E01DE019E045F008050FE045F094
:101B200010050CE045F0200509E045F0400506E011
:101B300045F0800503E045F4807500E000BF00BF7C
:101B40002068806920F07000216888610420216885
:101B500048602DB1606A284360622046FFF710FE9E
:101B6000BDE8F09F70B504460CB9012070BD94F833
:101B7000200010B9204600F0AFF82068006840F05F
:101B800001002168086000F097FD05460DE000F0B7
:101B900093FD401B0A2808D9606A40F40030606257
:101BA000052084F820000120E0E72068406800F06C
:101BB00001000028EBD02068006820F002002168B6
:101BC000086000F079FD05460DE000F075FD401B52
:101BD0000A2808D9606A40F400306062052084F861
:101BE00020000120C2E72068406800F002000028C1
:101BF000EBD1207E012806D12068006840F08000EB
:101C00002168086005E02068006820F080002168F5
:101C10000860607E012806D12068006840F040001E
:101C20002168086005E02068006820F04000216815
:101C30000860A07E012806D12068006840F02000DE
:101C40002168086005E02068006820F02000216815
:101C50000860E07E012806D12068006820F01000AE
:101C60002168086005E02068006840F010002168E5
:101C70000860207F012806D12068006840F0080035
:101C80002168086005E02068006820F008002168ED
:101C90000860607F012806D12068006840F00400D9
:101CA0002168086005E02068006820F004002168D1
:101CB0000860D4E9020108432169084361690843C7
:101CC0006168491E08432168C861002060620120E4
:101CD00084F82000002049E710B586B0044614219E
:101CE00001A8FEF714FC4E492068884241D14D48B6
:101CF0000068401C4B4908600846006801280FD165
:101D000000BF002000904848006840F0007046493D
:101D100008600846006800F00070009000BF00BF37
:101D200000BF0020009040481038006840F00800D4
:101D30003D49103908600846006800F0080000902E
:101D400000BF00BF032001900220029000200390FA
:101D5000032004900920059001A9344800F0ACFB51
:101D600000220521142000F06FFD142000F058FD22
:101D700054E02F492068884250D100BF00200090D5
:101D80002948006840F080602749086008460068DC
:101D900000F08060009000BF00BF22480068401C37
:101DA000204908600846006801280FD100BF0020C4
:101DB00000901D48006840F000701B49086008460C
:101DC000006800F00070009000BF00BF00BF00205E
:101DD000009015481038006840F002001249103990
:101DE00008600846006800F00200009000BF00BFD5
:101DF00060200190022002900020039003200490B4
:101E00000920059001A90B4800F056FB002205218E
:101E1000402000F019FD402000F002FD06B010BD8A
:101E2000006400401400002040380240000C0240D2
:101E300000680040000402407047000010B588B000
:101E40000446314B01AA00212046FFF79AFC2F4996
:101E50002068884229D140F202220198811A9042DA
:101E60000CD005DCA0F24110B8B1C0281BD104E0B1
:101E7000012904D0022916D102E000BF00BF00BF33
:101E80000198401E224908702249214A127851F8CF
:101E900022001D4905F02CFD06E01B491E48006884
:101EA000FEF7A8FD00E000BF2CE01C492068884236
:101EB00028D10198A0F2333010B1012820D112E0CE
:101EC00017480168104806F01DFD15480168091DF6
:101ED0000D48001D06F016FDFFF712FA10480068C5
:101EE00080ED030A0DE00E4801680831064806F04F
:101EF00009FDFFF705FA0A48006880ED030A00E0D3
:101F000000BF00BF08B010BD740100200064004095
:101F10007C010020EC4900206C010020006800409A
:101F20007001002070477047704770B5044694F800
:101F30002000012822D1022084F8200020680068B7
:101F400020F001002168086000F0B6FB05460DE0B6
:101F500000F0B2FB401B0A2808D9606A40F4003048
:101F60006062052084F82000012070BD2068406870
:101F700000F001000028EBD16062F6E7606A40F4EF
:101F8000002060620120F0E770477047704770479B
:101F900070477047704770B50446A56D00F08CFB24
:101FA000064694F83500022808D08020606500BFFE
:101FB000002084F8340000BF012070BD2068006854
:101FC00020F01600216808602068406920F0800039
:101FD00021684861206C08B9A06C28B120680068AD
:101FE00020F00800216808602068006820F00100E7
:101FF0002168086010E000F05FFB801B05280BD90A
:1020000020206065032084F8350000BF002084F89C
:10201000340000BF0320D0E72068006800F0010012
:102020000028E8D194F85C103F208840A860012087
:1020300084F8350000BF002084F8340000BF00BFE2
:10204000BBE7014691F83500022803D0802048659F
:1020500001207047052081F835000868006820F0ED
:1020600001000A6810600020F3E70000F8B504469C
:10207000002000908C4800684FF41651B0FBF1F737
:10208000A56D2E6894F85C1008208840304098B107
:102090002068006800F0040070B12068006820F03B
:1020A00004002168086094F85C1008208840A8604B
:1020B000606D40F00100606594F85C10012088407C
:1020C000304068B12068406900F0800040B194F869
:1020D0005C1001208840A860606D40F002006065DF
:1020E00094F85C1004208840304068B12068006893
:1020F00000F0020040B194F85C1004208840A86011
:10210000606D40F00400606594F85C101020884019
:10211000304078B32068006800F0080050B394F8AD
:102120005C1010208840A8602068006800F48020BF
:1021300080B12068006800F4002028B9206CC8B184
:102140002046216C884715E0A06C98B12046A16C10
:1021500088470FE02068006800F4807028B9206884
:10216000006820F0080021680860206C10B120464B
:10217000216C884794F85C1020208840304000286B
:1021800065D02068006800F0100000285FD094F847
:102190005C1020208840A86094F83500052828D1DC
:1021A0002068006820F016002168086020684069F7
:1021B00020F0800021684861206C08B9A06C28B12B
:1021C0002068006820F008002168086094F85C101E
:1021D0003F208840A860012084F8350000BF00201F
:1021E00084F8340000BF206D10B12046216D88476F
:1021F000F8BD2068006800F4802080B12068006885
:1022000000F4002028B9606C10B12046616C88474A
:102210001DE0E06BD8B12046E16B884717E02068ED
:10222000006800F4807068B92068006820F0100031
:1022300021680860012084F8350000BF002084F880
:10224000340000BFE06B10B12046E16B8847606D41
:1022500038B3606D00F00100F0B1052084F835005E
:102260002068006820F001002168086000BF009825
:10227000401C0090B84200D905E02068006800F0DA
:1022800001000028F3D100BF012084F8350000BF11
:10229000002084F8340000BFE06C10B12046E16CEF
:1022A000884700BFA4E70000240000202DE9F0418A
:1022B0000446002500F000FA074614B90120BDE8E5
:1022C000F081606A00B100BF022084F8350000BFD1
:1022D000002084F8340000BF2068006820F001006E
:1022E000216808600AE000F0E7F9C01B052805D95D
:1022F00020206065032084F83500E0E7206800684E
:1023000000F001000028EED1206805682148054052
:10231000D4E901010843E168084321690843616980
:102320000843A1690843E1690843216A084305435A
:10233000606A042803D1D4E90B01084305432068EF
:1023400005602068456925F00705606A0543606AF5
:1023500004280DD1A06A0543E06A48B12046FEF783
:102360002DFF28B140206065012084F83500A6E7E4
:10237000206845612046FEF707FF064694F85C108A
:102380003F208840B06000206065012084F835005F
:10239000002094E73F8010F02DE9F04104460D46FF
:1023A00016461F464FF0000800BF94F8340001287D
:1023B00002D10220BDE8F081012084F8340000BF82
:1023C00094F83500012811D1022084F8350000204E
:1023D00060653B46324629462046FEF744FF2068AA
:1023E000006840F001002168086006E000BF00209E
:1023F00084F8340000BF4FF002084046DAE72DE9C8
:10240000F04704460D4616461F464FF00008D4F824
:10241000589000BF94F83400012802D10220BDE892
:10242000F087012084F8340000BF94F835000128BB
:1024300025D1022084F83500002060653B463246F5
:1024400029462046FEF70FFF94F85C103F20884095
:10245000C9F808002068006840F01600216808608C
:10246000206C28B12068006840F0080021680860EE
:102470002068006840F001002168086006E000BFA5
:10248000002084F8340000BF4FF002084046C6E741
:1024900070B5044600F010F906462546681C10B1D8
:1024A00004480078054400BF00F006F9801BA842EC
:1024B000FAD370BD20000020F8B502460B46002577
:1024C000002400200021D6E0012606FA01F51E684E
:1024D00006EA0504AC4274D11E7906F00306012E0B
:1024E00004D01E7906F00306022E13D190684F0027
:1024F0000326BE40B0434F00DE68BE4030439060CC
:10250000506801268E40B0431E79C6F300168E40F7
:10251000304350601E7906F00306032E09D0D068C0
:102520004F000326BE40B0434F009E68BE4030437C
:10253000D0601E7906F00306022E13D1CF0802F1F7
:10254000200656F827004E07F70E0F26BE40B04370
:102550004F07FF0E1E69BE403043CF0802F1200630
:1025600046F8270010684F000326BE40B0431E798E
:1025700006F003064F00BE40304310605E6806F46C
:102580004036002E76D000BF002600963C4E3668BE
:1025900046F480463A4F3E603E46366806F4804632
:1025A000009600BF00BF374E8F0856F827008E07F1
:1025B000370F0F26BE40B043334EB24202D1002641
:1025C00024E057E0314EB24201D101261EE0304EE8
:1025D000B24201D1022619E02E4EB24201D10326A9
:1025E00014E02D4EB24201D104260FE02B4EB24230
:1025F00001D105260AE02A4EB24201D1062605E0A5
:10260000284EB24201D1072600E008268F073F0F6F
:10261000BE4030431B4E8F0846F82700224E3068DC
:10262000A0435E6806F4801606B120431E4E30605B
:10263000361D3068A0435E6806F4001606B12043DC
:10264000194E361D3060184E361F3068A0435E6844
:1026500006F4003606B12043134E361F3060361F95
:102660003068A0435E6806F4803606B120430E4E03
:10267000083E3060491C1029FFF426AFF8BD000069
:102680004438024008380140000002400004024083
:1026900000080240000C02400010024000140240FA
:1026A00000180240001C0240083C01400AB1816150
:1026B00001E00B0483617047014800687047000027
:1026C00018000020034800680349097808440149BC
:1026D00008607047180000202000002010B50D4849
:1026E000006840F400700B4908600846006840F438
:1026F000806008600846006840F48070086003202D
:1027000000F0E0F80F2000F007F800F05FF800207C
:1027100010BD0000003C02402DE9F04188B00446A5
:102720000027B84600BF002001902348006840F40D
:102730008070214908600846006800F480700190AC
:1027400000BF00BF02A903A800F092F9069F1FB9BD
:1027500000F0B6F9054602E000F0B2F9450017486E
:10276000B5FBF0F0A0F1010815481649086040F2E9
:10277000E7311448C160C0F8048000210161816024
:10278000816100F0F3FE064696B90E4800F0A0FF06
:1027900006466EB92D2000F043F8102C07D2002217
:1027A00021462D2000F050F80748046000E0012683
:1027B000304608B0BDE8F0814038024040420F008A
:1027C00000200040040900201C00002008B500BFC4
:1027D000002000901148006840F480400F490860D4
:1027E0000846006800F48040009000BF00BF00BFB2
:1027F00000200090081F006840F08050091F08600A
:102800000846006800F08050009000BF00BF002222
:102810000F21901E00F018F808BD00004438024057
:102820000146084600280DDB00BF00BF00F01F0373
:1028300001229A4043099B0003F1E023C3F80021E1
:1028400000BF00BF00BF70472DE9F05F80460D4616
:102850001646002703F002FC074639462A4633464F
:1028600001F00700C0F1070ABAF1040F02D94FF0D6
:10287000040A01E0C0F1070AD14600F1040ABAF1E6
:10288000070F02D24FF0000A01E0A0F1030AD4467C
:102890004FF0010A0AFA09FAAAF1010A0AEA020A41
:1028A0000AFA0CFA4FF0010B0BFA0CFBABF1010B1F
:1028B0000BEA030B4AEA0B042146404603F0D6FB21
:1028C000BDE8F09F00BF00F00702064B19684FF605
:1028D000FF031940044B0B4343EA0221014B1960EB
:1028E00000BF70470CED00E00000FA0570B504462B
:1028F0000D460CB9012070BD5848006800F0070073
:10290000A84209D255490D700846006800F007003A
:10291000A84201D00120EEE7207800F00200022852
:102920001DD1207800F00400042805D14C4800682F
:1029300040F4E0504A490860207800F00800082878
:1029400005D14748006840F4604045490860444864
:10295000006820F0F000A168084341490860207831
:1029600000F00100A8B36068012807D13C4808388E
:102970000068C0F34040B8B90120BCE76068022895
:1029800002D06068032807D1354808380068C0F3D2
:10299000406048B90120AEE7314808380068C0F30C
:1029A000400008B90120A6E72D48006820F0030088
:1029B000616808432A490860FFF77EFE064609E081
:1029C000FFF77AFE801B41F28831884202D903204A
:1029D00091E707E02248006800F00C006168B0EB66
:1029E000810FEDD11D48006800F00700A84209D909
:1029F0001A490D700846006800F00700A84201D08F
:102A0000012078E7207800F00400042807D114485A
:102A1000006820F4E050E16808431149086020781C
:102A200000F00800082808D10D48006820F4604034
:102A3000216940EAC1000A49086000F061F80849CC
:102A40000968C1F30311074A515CC8400649086090
:102A500006480068FFF760FE00204CE7003C02409B
:102A60000838024078A00008240000201C00002044
:102A70000F2202600D4A126802F0030242600B4A04
:102A8000126802F0F0028260084A126802F4E05212
:102A9000C260064A126802F46042D2080261044A27
:102AA000126802F007020A6070470000083802400E
:102AB000003C0240014800687047000024000020EC
:102AC00000B5FFF7F7FF04490968C1F38221034A03
:102AD000515CC84000BD00000838024088A00008D2
:102AE00000B5FFF7E7FF04490968C1F34231034A23
:102AF000515CC84000BD00000838024088A00008B2
:102B00002DE9F047002400250026A146254800684D
:102B100000F00C0020B1042805D008283AD105E0C7
:102B2000DFF8849039E0DFF8849036E01D48001F1C
:102B3000006800F03F041B48001F006800F480009C
:102B400078B11A481749091F0968C1F38811A0FB19
:102B500001700146224600233846FDF705FC054674
:102B60000EE011480F49091F0968C1F38811A0FB45
:102B700001700146224600233846FDF7F5FB054665
:102B80000848001F0068C0F30140401C4600B5FB28
:102B9000F6F902E0DFF8109000BF00BF4846BDE83C
:102BA000F0870000083802400024F400001BB70042
:102BB000F8B504460CB90120F8BD207800F00100FA
:102BC000002874D0F948006800F00C0004280DD0EB
:102BD000F648006800F00C00082813D1F348001FE5
:102BE000006800F48000B0F5800F0BD1EF48083882
:102BF0000068C0F34040002859D06068002856D1D2
:102C00000120D9E700BF6068B0F5803F08D1E748F0
:102C10000838006840F48030E449083908601EE054
:102C20006068B0F5A02F0DD1E0480838006840F486
:102C30008020DE49083908600846006840F480308A
:102C400008600CE0D9480838006820F48030D74983
:102C5000083908600846006820F48020086000BF3A
:102C6000606890B1FFF728FD054606E0FFF724FDF8
:102C7000401B642801D903209EE7CC48083800682F
:102C8000C0F340400028F1D011E0FFF715FD0546E4
:102C900006E0FFF711FD401B642801D903208BE7F4
:102CA000C24808380068C0F340400028F1D12078BD
:102CB00000F0020002285FD1BC48006800F00C0060
:102CC00058B1BA48006800F00C0008281CD1B74879
:102CD000001F006800F48000B0B9B44808380068EC
:102CE000C0F3400020B1E068012801D0012063E773
:102CF000AE480838006820F0F800216940EAC100B9
:102D0000AA490839086037E0E06800B30120A84903
:102D10000860FFF7D1FC054606E0FFF7CDFC401B3D
:102D2000022801D9032047E7A04808380068C0F30B
:102D300040000028F1D09D480838006820F0F800D5
:102D4000216940EAC10099490839086014E000206F
:102D500097490860FFF7B0FC054606E0FFF7ACFCBA
:102D6000401B022801D9032026E790480838006854
:102D7000C0F340000028F1D1207800F008000828B6
:102D80002CD16069A8B101208A490860FFF794FC42
:102D9000054606E0FFF790FC401B022801D90320FE
:102DA0000AE782486C300068C0F340000028F1D088
:102DB00014E000207F490860FFF77EFC054606E02E
:102DC000FFF77AFC401B022801D90320F4E677487C
:102DD0006C300068C0F340000028F1D1207800F08A
:102DE0000400042870D1002770483830006800F0D3
:102DF000805090B900BF002000906C4838300068C7
:102E000040F080506949383108600846006800F099
:102E10008050009000BF00BF01276748006800F4A1
:102E20008070B0B96448006840F4807062490860FE
:102E3000FFF742FC054606E0FFF73EFC401B022878
:102E400001D90320B8E65C48006800F480700028CF
:102E5000F2D000BFA068012808D15448683000684B
:102E600040F001005149683108601DE0A068052864
:102E70000DD14E486830006840F004004B4968317D
:102E800008600846006840F0010008600CE0474810
:102E90006830006820F00100444968310860084645
:102EA000006820F00400086000BFA068A8B1FFF728
:102EB00003FC054609E0FFF7FFFB401B41F28831A8
:102EC000884202D9032077E626E038486830006857
:102ED000C0F340000028EED013E0FFF7EDFB0546FD
:102EE00008E0FFF7E9FB401B41F28831884201D935
:102EF000032061E62D4868300068C0F340000028D8
:102F0000EFD1012F07D129483830006820F08050D8
:102F100026493831086000BFA069002845D0234801
:102F2000006800F00C0008285DD0A069022845D197
:102F300000201F490866FFF7BFFB054606E0FFF7C4
:102F4000BBFB401B022801D9032035E6174808388F
:102F50000068C0F340600028F1D1D4E907010843BC
:102F6000616A40EA81110122A06AC2EB500041EA85
:102F700000412C20005D41EA00600C49091F0860F7
:102F800001200B490866FFF797FB054606E0FFF7AF
:102F900093FB401B022801D903200DE603480838A3
:102FA0000068C0F340600028F1D049E008380240D2
:102FB00000004742800E4742007000400020214937
:102FC0000866FFF779FB054606E0FFF775FB401B37
:102FD000022801D90320EFE51B480068C0F34060D8
:102FE0000028F2D12CE0A069012800D1E4E51648C0
:102FF000001D0668A069012820D006F48001E06960
:1030000081421BD106F03F01206A814216D147F66A
:10301000C0703040616AB0EB811F0FD106F44031BF
:103020000122A06AC2EB5000B1EB004F06D106F0BE
:1030300070612C20005DB1EB006F01D00120BBE579
:103040000020B9E5000047420038024010B50446B0
:103050000CB9012010BD606A38B96068B0F5827F94
:1030600000D105E00021E16102E000212161616100
:103070000021A16294F8510028B9002084F8500082
:10308000204600F047F8022084F8510020680068CC
:1030900020F0400021680860A08800F48270218937
:1030A00001F404410843A18901F400610843217C33
:1030B00001F002010843217D01F001010843218B49
:1030C00001F400710843217F01F0380108432021F9
:1030D000095D01F080010843218D01F4005108438E
:1030E000216808600421A06901EA104094F82410C6
:1030F00001F010010843216848602068C06920F48D
:1031000000602168C86100206065012084F85100DA
:1031100000209FE710B586B00446142101A8FDF7F2
:10312000F6F94B49206888427ED100BF002000900C
:103130004848006840F480504649086008460068E6
:1031400000F48050009000BF00BF00BF002000903E
:1031500040481438006840F002003E4914390860C5
:103160000846006800F00200009000BF00BF00BFEA
:10317000002000900846006840F001000860084602
:10318000006800F00100009000BF00BF182001900F
:103190000220029000200390032004900520059057
:1031A00001A92D48FFF788F98020019002200290A4
:1031B00000200390032004900520059001A92748D2
:1031C000FFF77AF92648274908604FF0C060486049
:1031D000002124488160C1604FF4806101610021B9
:1031E00041618161C1614FF440310162002141625E
:1031F000FFF75CF808B1FEF74AF900BF1948E06430
:10320000846300BF16481830174908604FF0C0604B
:1032100048604021144881600021C1604FF4806102
:1032200001610021416100E010E08161C1614FF462
:103230000031016200214162FFF738F808B1FEF762
:1032400026F900BF0848A064846300BF06B010BD23
:1032500000300140443802400004024000000240B7
:1032600040640240FC0400205C0500202DE9FE4F74
:1032700004460F4690461D460C9E01200190FFF724
:103280001BFA814694F851B060680290AA46BBF1DF
:10329000010F0BD00298B0F5827F04D1A06810B95D
:1032A000BBF1040F02D00220BDE8FE8F1FB1B8F1C0
:1032B000000F00D00DB90120F6E700BF94F85000D0
:1032C000012801D10220EFE7012084F8500000BF5F
:1032D00094F85100042802D0052084F85100002001
:1032E0006065C4F83880E587A5872763E586A586ED
:1032F000206460642068006800F04000402805D029
:103300002068006840F0400021680860E068B0F57F
:10331000006F52D1606810B1BAF1010F09D1206B72
:1033200000882168C860206B801C2063E08E401EEE
:10333000E0863BE02068806800F00200022810D19F
:10334000E08E70B1019801280BD1206B00882168B4
:10335000C860206B801C2063E08E401EE086002049
:1033600001902068806800F0010068B1E08F58B1DA
:103370002068C068A16B0880A06B801CA063E08FF0
:10338000401EE08701200190FFF796F9A0EB0900AD
:10339000B0420BD3701C48B1012084F8510000BF2B
:1033A000002084F8500000BF03207DE7E08E002855
:1033B000C0D1E08F0028BDD152E0606810B1BAF1F1
:1033C000010F09D1206B007821680873206B401C25
:1033D0002063E08E401EE0863CE02068806800F0BC
:1033E0000200022810D1E08E70B1019801280BD1A3
:1033F000206B007821680873206B401C2063E08EEE
:10340000401EE086002001902068806800F00100E6
:1034100068B1E08F58B12068C068A16B0870A06BDC
:10342000401CA063E08F401EE08701200190FFF761
:1034300043F9A0EB0900B04201D3701C00B94EB9AA
:10344000012084F8510000BF002084F8500000BF24
:10345000032029E7E08E0028BFD1E08F0028BCD1EF
:103460004A463146204601F06BFE40B1202060659F
:1034700000BF002084F8500000BF012014E7A068BE
:1034800050B900BF002000902068C06800902068FC
:103490008068009000BF00BF012084F8510000BF89
:1034A000002084F8500000BF606D08B10120FBE6E9
:1034B0000020F9E67047704730B502460B4600BF62
:1034C00092F83C00012801D1022030BD012082F891
:1034D0003C0000BF022082F83D001068446810687C
:1034E000816824F070041868044310684460184D23
:1034F0001068A8421BD01068B0F1804F17D0154D4E
:103500001068A84213D0144D1068A8420FD0134D74
:103510001068A8420BD0124D1068A84207D0114D78
:103520001068A84203D0104D1068A84205D121F0C0
:1035300080015868014310688160012082F83D00D5
:1035400000BF002082F83C0000BF00BFBDE70000C4
:10355000000001400004004000080040000C004052
:1035600000040140004001400018004010B504462E
:103570000CB9012010BD94F83D0028B9002084F852
:103580003C00204600F026F8022084F83D00211D72
:10359000206802F035F8012084F8460000BF84F866
:1035A0003E0001213F200155402001554120015599
:1035B00000BF00BF012084F8420043200155442091
:1035C00001554520015500BF012084F83D00002031
:1035D000D0E7000008B5144A016891420FD100BF3E
:1035E000002100911149096841F004010F4A11605E
:1035F0001146096801F00401009100BF13E00C4A74
:10360000016891420FD100BF00210091074909686C
:1036100041F00801054A11601146096801F00801EE
:10362000009100BF00BF08BD0008004040380240C4
:10363000000C0040014691F83D00012801D0012016
:103640007047022081F83D001A4B086898421BD051
:103650000868B0F1804F17D0174B0868984213D014
:10366000164B086898420FD0154B086898420BD04B
:10367000144B0868984207D0134B0868984203D04F
:10368000124B086898420CD10868806800F0070265
:10369000062A0CD00868006840F001000B6818602A
:1036A00005E00868006840F001000B681860002021
:1036B000C6E7000000000140000400400008004090
:1036C000000C004000040140004001400018004090
:1036D000014691F83D00012801D0012070470220E9
:1036E00081F83D000868C06840F001000B68D860B0
:1036F0001A4B086898421BD00868B0F1804F17D069
:10370000174B0868984213D0164B086898420FD0A0
:10371000154B086898420BD0144B0868984207D0A4
:10372000134B0868984203D0124B086898420CD19A
:103730000868806800F00702062A0CD00868006854
:1037400040F001000B68186005E00868006840F070
:1037500001000B6818600020C0E700000000014075
:103760000004004000080040000C0040000401403C
:1037700000400140001800402DE9F04104460D468C
:10378000002700BF94F83C00012802D10220BDE8C8
:10379000F081012084F83C0000BF022084F83D0045
:1037A0002068866826F0770626F47F4620688660C3
:1037B0002868502833D00CDC202850D004DC0028A6
:1037C0004BD0102851D149E0302849D040284CD165
:1037D00039E060282DD0702807D0B0F5805F03D085
:1037E000B0F5005F41D10DE041E0D5E902136A6810
:1037F000206801F086FF2068866846F0770620681A
:10380000866034E0D5E902136A68206801F079FF28
:103810002068806840F480402168886027E0EA687A
:103820006968206802F05EF85021206801F074FF9A
:103830001DE0EA686968206802F067F86021206886
:1038400001F06AFF13E0EA686968206802F04AF84C
:103850004021206801F060FF09E000BF00BF00BF09
:103860002968206801F058FF01E0012700BF00BF70
:10387000012084F83D0000BF002084F83C0000BF18
:10388000384684E7704770B504462068C5682068EC
:10389000066906F00200022819D105F0020002288C
:1038A00015D1401F216808610120207720688069B8
:1038B00000F0030018B12046FFF7E4FF05E02046C2
:1038C00000F0F0F8204600F0A4F90020207706F080
:1038D0000400042819D105F00400042815D1C043C0
:1038E00021680861022020772068806900F4407018
:1038F00018B12046FFF7C6FF05E0204600F0D2F8D9
:10390000204600F086F90020207706F008000828FD
:1039100019D105F00800082815D1C04321680861B5
:10392000042020772068C06900F0030018B1204609
:10393000FFF7A8FF05E0204600F0B4F8204600F0AD
:1039400068F90020207706F01000102819D105F042
:103950001000102815D1C043216808610820207785
:103960002068C06900F4407018B12046FFF78AFF54
:1039700005E0204600F096F8204600F04AF90020C5
:10398000207706F0010048B105F0010030B16FF07A
:10399000010021680861204600F0C2F906F08000AD
:1039A000802809D105F08000802805D1C043216816
:1039B00008612046FFF77EFD06F04000402809D14F
:1039C00005F04000402805D1C04321680861204629
:1039D00000F0B2F906F02000202809D105F02000FF
:1039E000202805D1C043216808612046FFF763FD08
:1039F00070BD000010B586B00446142101A8FCF784
:103A000086FD2349206888421DD100BF0020009018
:103A10002048006840F002001E490860084600681F
:103A200000F00200009000BF00BF88150190022046
:103A300002900020039004900220059001A91648EE
:103A4000FEF73AFD21E01549206888421DD100BFEC
:103A5000002000900F48006840F080000D49086089
:103A60000846006800F08000009000BF00BF4FF4DF
:103A7000E050019002200290002003900490022068
:103A8000059001A90648FEF717FD06B010BD00001D
:103A9000000800403038024000040240000C0040A2
:103AA000001C024070472DE9F04104460D461646C1
:103AB000002700BF94F83C00012802D10220BDE895
:103AC000F081012084F83C0000BF36B1042E1BD0E9
:103AD000082E31D00C2E5ED145E02946206801F039
:103AE00025FE2068806940F0080021688861206810
:103AF000806920F004002168886120688069296954
:103B000008432168886148E02946206801F046FEA4
:103B10002068806940F400602168886120688069BD
:103B200020F480602168886120688069296940EA02
:103B300001202168886130E02946206801F06CFE90
:103B40002068C06940F008002168C8612068C06929
:103B500020F004002168C8612068C0692969084311
:103B60002168C86119E02946206801F091FE2068AB
:103B7000C06940F400602168C8612068C06920F411
:103B800080602168C8612068C069296940EA012015
:103B90002168C86101E0012700BF00BF00BF00200D
:103BA00084F83C0000BF384689E710B504460CB9DC
:103BB000012010BD94F83D0028B9002084F83C0095
:103BC000204600F025F8022084F83D00211D2068E1
:103BD00001F016FD012084F8460000BF84F83E0085
:103BE00001213F200155402001554120015500BFD2
:103BF00000BF012084F842004320015544200155B4
:103C00004520015500BF012084F83D000020D0E789
:103C10007047704770B504460D4615B994F83E00DC
:103C20000BE0042D02D13F20005D06E0082D02D1FB
:103C30004020005D01E04120005D012801D001200D
:103C400070BD1DB9022084F83E000EE0042D03D1A2
:103C500002213F20015508E0082D03D10221402018
:103C6000015502E002214120015501222946206828
:103C700001F036FD23492068884203D0224920689C
:103C8000884201D1012000E0002028B12068406C6A
:103C900040F40040216848641A49206888421BD0DB
:103CA0002068B0F1804F17D018492068884213D09F
:103CB0001749206888420FD01649206888420BD0E7
:103CC00011492068884207D013492068884203D0F0
:103CD0001249206888420CD12068806800F00706ED
:103CE000062E0CD02068006840F0010021680860B2
:103CF00005E02068006840F00100216808600020AD
:103D00009EE7000000000140000401400004004064
:103D100000080040000C0040004001400018004036
:103D200010B5044603492068884201D1FEF7CAFC59
:103D300010BD0000002000407047F8B504460D4655
:103D4000164694F8420020282DD105B10EB9012065
:103D5000F8BD0120206300206063324629462046DA
:103D600002F072F80746206B012819D100BF00202D
:103D7000009020680068009020684068009000BFB4
:103D800000BF00BF00BF21680C3151E8001F41F0A7
:103D9000100021680C3141E80002002AF3D100E054
:103DA00001273846D4E70220D2E7000070B5044668
:103DB0000D461448844210D1134804F015FE162213
:103DC00011491048FFF7B9FF10480068006820F05B
:103DD00008000E490968086012E00D4884420FD1BE
:103DE0000C4804F0CBFC18220A490948FFF7A5FF4C
:103DF00009480068006820F0080007490968086061
:103E000070BD00004C0600203C4600202407002026
:103E1000DC060020524600204408002070470000C5
:103E20002DE9F84F0446206805682068C6682068B8
:103E300047694FF00009CA4605F00F09B9F1000FB4
:103E40000AD105F0200038B106F0200020B120464C
:103E500001F065FEBDE8F88FB9F1000F7CD007F0E6
:103E6000010018B906F49070002875D005F0010023
:103E700030B106F4807018B1606C40F001006064ED
:103E800005F0040030B107F0010018B1606C40F09B
:103E90000200606405F0020030B107F0010018B1C3
:103EA000606C40F00400606405F0080048B106F062
:103EB000200010B907F0010018B1606C40F0080054
:103EC0006064606C002846D005F0200028B106F040
:103ED000200010B1204601F022FE20684069C0F3A6
:103EE000801A606C00F0080010B9BAF1000F2DD0F4
:103EF000204601F0BBFD2068406900F040004028EA
:103F000020D100BF00BF2168143151E8001F21F00B
:103F100040002168143141E80002002AF3D100BFBB
:103F2000E06B50B17F48E16B0865E06BFEF789F804
:103F300088B1E06B016D88470DE02046FFF76EFF0A
:103F400009E009E02046FFF769FF04E02046FFF79B
:103F500065FF002060647DE7206B012878D105F0C3
:103F60001000002874D006F010000028FAD000BF1E
:103F70000020009020680068009020684068009051
:103F800000BF00BF2068406900F04000402870D1A9
:103F9000E06B006840681FFA80F8B8F1000F58D055
:103FA000A08D404555DDA4F82E80E06BC069B0F5CA
:103FB000807F43D000BF00BF21680C3151E8001F53
:103FC00021F4807021680C3141E80002002AF3D10D
:103FD00000BF00BF00BF2168143151E8001F21F06D
:103FE00001002168143141E80002002AF3D100BF2A
:103FF00000BF00BF2168143151E8001F21F04000CC
:104000002168143141E80002002AF3D100BF2020CA
:1040100084F842000020206300BF00BF21680C31FB
:1040200051E8001F21F0100021680C3141E8000226
:10403000002AF3D100BFE06BFDF7ADFF0220606303
:10404000A08DE28D801A81B22046FFF7AFFE0EE010
:1040500052E0A08D40450AD1E06BC069B0F5807F89
:1040600005D102206063A18D2046FFF79FFEF1E697
:10407000FFE7A08DE18D401A1FFA80F8E08DD0B3E4
:10408000B8F1000F37D000BF00BF21680C3151E8F4
:10409000001F21F4907021680C3141E80002002AD1
:1040A000F3D100BF00BF00BF2168143151E8001FE9
:1040B00021F001002168143141E80002002AF3D107
:1040C00000BF202084F842000020206300BF00BF12
:1040D00021680C3151E8001F21F0100021680C31DB
:1040E00041E80002002AF3D100BF0220606341468C
:1040F0002046FFF75BFEADE605F0800030B106F02C
:10410000800018B1204601F00BFFA3E605F0400047
:1041100030B106F0400018B1204601F0DDFC99E610
:1041200000BF97E63359000810B504460CB90120CA
:1041300010BDA06900B100E000BF94F8410028B9AB
:10414000002084F84000204600F02AF8242084F85B
:1041500041002068C06820F400502168C8602046F3
:1041600001F05CFD2068006920F49040216808613E
:104170002068406920F02A00216848612068C068F2
:1041800040F400502168C86000206064202084F85A
:10419000410084F842000020606300BFC8E70000CF
:1041A00010B586B00446142101A8FCF7B0F9BA494D
:1041B000206888427ED100BF00200090B748006888
:1041C00040F01000B54908600846006800F0100093
:1041D000009000BF00BF00BF00200090AF4814381F
:1041E000006840F00200AD491439086008460068D4
:1041F00000F00200009000BF00BF00BF0020009050
:104200000846006840F0010008600846006800F0B9
:104210000100009000BF00BF8020019002200290AA
:1042200000200390032004900720059001A99C48DA
:10423000FEF742F94FF40070019002200290002036
:104240000390032004900720059001A99548FEF7EC
:1042500033F99548954908604FF0006048600021A7
:1042600092488160C1604FF4806101610021416129
:104270008161C16101624162FEF718F808B1FDF782
:1042800006F900BF8948E063846300BF8648303088
:10429000874908604FF00060486040218448816091
:1042A0000021C1604FF480610161002141618161A1
:1042B000C16100E014E001624162FDF7F7FF08B15F
:1042C000FDF7E5F800BF7A48A063846300BF0022D1
:1042D00005212520FEF7B8FA2520FEF7A1FAD9E03E
:1042E0007449206888425CD100BF002000906B4870
:1042F000001F006840F480206849091F08600846D4
:10430000006800F48020009000BF00BF00BF0020C4
:10431000009062481438006840F004005F49143986
:1043200008600846006800F00400009000BF00BF6D
:104330004FF440600190022002900120039003207E
:1043400004900720059001A95B48FEF7B5F85B488B
:104350005B4908604FF00060486000215848816068
:10436000C1604FF4806101610021416181614FF4BE
:104370008071C1610902016200214162FDF796FF6F
:1043800008B1FDF784F800BF4D48E063846300BFC7
:10439000002205212720FEF757FA2720FEF740FAD2
:1043A00078E048492068884274D100BF002000901E
:1043B0003A48006840F02000384908600846006824
:1043C00000F02000009000BF00BF00BF0020009060
:1043D00032481438006840F0400030491439086011
:1043E0000846006800F04000009000BF00BF4FF496
:1043F000844001900220029000200390032004904A
:104400000820059001A93048FEF756F82648603884
:104410002E4908608005486000212C488160C160F9
:104420004FF480610161002141618161C1610162DC
:104430004162FDF73BFF08B1FDF729F800BF2348B3
:10444000E063846300BF18481830214908604FF0CA
:104450002060486040211E4881600021C1604FF407
:1044600080610161002141618161C161016241623C
:10447000FDF71CFF08B1FDF70AF800BF1448A06360
:10448000846300BF002205214720FEF7DDF94720A5
:10449000FEF7C6F906B010BD0010014044380240D6
:1044A000000402400000024088640240240700200B
:1044B00084070020004800400008024028600240B5
:1044C000E4070020001401400018024044080020C6
:1044D000A408002070477047704700BFFEE7000047
:1044E0002DED088B02F07CFDD0E004F0C3F800282D
:1044F000FAD10024C7E0664850F82400000E00EE10
:10450000100AB8EE400AB0EE40AA614850F8240004
:10451000C0F3074000EE100AB8EE400AF0EE40AAE1
:104520005B4830F82400C0F3072000EE100AB8EE14
:10453000400AB0EE40BA564810F8240000EE100AC7
:10454000B8EE400AF0EE40BA5149601C51F8200024
:10455000000E00EE100AF8EE400A084650F824005B
:10456000000E00EE100AB8EE400A30EEC00AB0EEBF
:10457000408A601C51F82000C0F3074000EE100A8A
:10458000F8EE400A084650F82400C0F3074000EE59
:10459000100AB8EE400A30EEC00AF0EE408A601C05
:1045A00031F82000C0F3072000EE100AF8EE400AB0
:1045B000084630F82400C0F3072000EE100AB8EED9
:1045C000400A30EEC00AB0EE409A601C11F820009C
:1045D00000EE100AF8EE400A084610F8240000EE3B
:1045E000100AB8EE400A30EEC00AF0EE409A9FED95
:1045F000290AC8EE000AB0EE608A9FED260AC8EECE
:10460000800AF0EE608A9FED230AC9EE000AB0EE40
:10461000609A9FED200AC9EE800AF0EE609A0025AC
:104620002DE03AEE080AB0EE40AA3AEEA80AF0EE03
:1046300040AA3BEE090AB0EE40BA3BEEA90AF0EE02
:1046400040BABCEECA0A10EE100A0106BCEEEA0A35
:1046500010EE100A41EA0041BCEECB0A10EE100A3F
:1046600041EA0020BCEEEB0A10EE101A40EA010607
:10467000304602F0EDFC032003F096FC6D1CB5F50E
:10468000FA7FCEDB641C062CFFF635AF2DE7000069
:10469000E00000200000FA4310B50E480E49086003
:1046A0000320486000210C488160C1604FF4102154
:1046B00001614FF40011416100210176417681765C
:1046C000C17601774177FDF74DFA08B1FCF7DFFEBF
:1046D00010BD0000006400405404002010B50E48D6
:1046E0000E4908600320486000210C488160C160C9
:1046F0004FF4102101614FF4001141610021017656
:1047000041768176C17601774177FDF72BFA08B1C2
:10471000FCF7BDFE10BD0000006800407C040020D6
:1047200008B500BF002000902A48006840F48000CF
:10473000284908600846006800F48000009000BF27
:1047400000BF00BF002000900846006840F4001041
:1047500008600846006800F40010009000BF00BF29
:10476000002205210C20FEF76FF80C20FEF758F808
:10477000002205213920FEF767F83920FEF750F8AE
:10478000002205213A20FEF75FF83A20FEF748F8AC
:10479000002205213B20FEF757F83B20FEF740F8AA
:1047A000002205214420FEF74FF84420FEF738F898
:1047B000002205214520FEF747F84520FEF730F896
:1047C000002205214620FEF73FF84620FEF728F894
:1047D00008BD00003038024000B5A3B01C221E49BD
:1047E0001CA8FBF738FE00211CA803F0EEFB1B49B8
:1047F00008601C2218491C3115A8FBF72CFE00216B
:1048000015A803F0E2FB164908601C221249383152
:104810000EA8FBF720FE00210EA803F0D6FB1149DD
:1048200008601C220C49543107A8FBF714FE002134
:1048300007A803F0CAFB0C4908601C220649703126
:104840006846FBF708FE0021684603F0BEFB0749F7
:10485000086023B000BD0000E49F000810000020A5
:104860000000002004000020080000200C000020B0
:1048700000B587B0142102A8FBF749FE00BF002055
:1048800001904248006840F0020040490860084634
:10489000006800F00200019000BF00BF00BF0020D0
:1048A00001900846006840F0400008600846006833
:1048B00000F04000019000BF00BF00BF0020019049
:1048C0000846006840F0010008600846006800F0F3
:1048D0000100019000BF00BF00BF0020019008460A
:1048E000006840F0080008600846006800F0080012
:1048F000019000BF00BF00BF002001900846006883
:1049000040F0040008600846006800F004000190D0
:1049100000BF00BF00BF002001900846006840F0C3
:10492000800008600846006800F08000019000BF29
:1049300000BF012210211648FDF7B8FE01221146E2
:104940001448FDF7B3FE102002900120039004905C
:104950000220059002A90E48FDF7AEFD302002901E
:104960004FF4041003900120049002A90A48FDF7B7
:10497000A3FD01200290039004900220059002A95B
:104980000448FDF799FD07B000BD00003038024033
:1049900000000240000402400008024010B50F4829
:1049A0000F4908604FF48270486000210C48816014
:1049B000C160022101610121416149028161382107
:1049C000C16100210162416281620A21C162FEF778
:1049D0003DFB08B1FCF75BFD10BD0000003001405D
:1049E000A404002000B58DB0002009900A900B901F
:1049F0000C90079008901C216846FBF788FD204822
:104A000020490860A720486000211E4881604FF6B9
:104A1000FF71C160002101618161FEF7A7FD08B14E
:104A2000FCF735FD4FF48050099009A91548FEF7B1
:104A3000A3FE08B1FCF72BFD1248FFF7B6F808B14A
:104A4000FCF725FD00200790089007A90D48FEF708
:104A500033FD08B1FCF71BFD6020009000200190A1
:104A600002900490082269460648FFF71CF808B136
:104A7000FCF70DFD0348FEF7BDFF0DB000BD0000C3
:104A800000080040BC05002000B58DB00020099052
:104A90000A900B900C90079008901C216846FBF739
:104AA00036FD284828490860002048600021264833
:104AB00081604FF6FF71C160002101618161FEF7E5
:104AC00055FD08B1FCF7E3FC4FF48050099009A9AB
:104AD0001D48FEF751FE08B1FCF7D9FC1A48FFF754
:104AE00064F808B1FCF7D3FC00200790089007A9F0
:104AF0001548FEF7E1FC08B1FCF7C9FC6020009006
:104B00000020019002900490002269460E48FEF7B2
:104B1000CAFF08B1FCF7BBFC042269460A48FEF74D
:104B2000C2FF08B1FCF7B3FC082269460648FEF74D
:104B3000BAFF08B1FCF7ABFC0348FEF75BFF0DB012
:104B400000BD0000000C00400406002010B50B481A
:104B50000B4908604FF4E13048600021084881604B
:104B6000C16001610C21416100218161C161FFF7D8
:104B7000DBFA08B1FCF78BFC10BD0000001001400F
:104B80004C06002010B50A480A4908600A484860E7
:104B9000002108488160C16001610C214161002150
:104BA0008161C161FFF7C0FA08B1FCF770FC10BD6C
:104BB0000048004094060020A086010010B50B4874
:104BC0000B4908604FF4E1304860002108488160DB
:104BD000C16001610C21416100218161C161FFF768
:104BE000A3FA08B1FCF753FC10BD0000001401400B
:104BF000DC06002000BFFEE700BFFEE710B52DED8C
:104C0000028BB0EE408A0446FCF77AFB30EE480A8D
:104C1000F6EE000AB4EEE00AF1EE10FA07DD00212C
:104C2000204603F095F90020BDEC028B10BD012158
:104C3000204603F08DF90120F6E70000B0EE401A9F
:104C4000F0EE601A90ED080A80ED090A10B99FEDA8
:104C5000E50A704790ED130A80ED140A90ED120AF0
:104C600080ED130AC0ED061A80ED071A31EEC10A75
:104C700080ED120A0178002976D190ED150AB5EE83
:104C8000C00AF1EE10FA18DD90ED120A90ED152A27
:104C9000B4EEC20AF1EE10FA0FD290ED120A90EDC6
:104CA000152AB1EE422AB4EEC20AF1EE10FA04DD82
:104CB0009FEDCC0A80ED080A3CE190ED100A80EDF2
:104CC000110A90ED0F0A80ED100A90ED120A90ED96
:104CD000132A30EE420A80ED0F0A90ED160AB7EE65
:104CE000002AB4EE420AF1EE10FA4BD100213DE069
:104CF000026E02EB011292ED002A90ED120AB5EE5F
:104D0000C00AF1EE10FA02DD90ED120A03E090ED18
:104D1000120AB1EE400AB4EEC02AF1EE10FA24DB1A
:104D2000026E02EB011292ED010A90ED122A20EEC2
:104D3000020A80ED0C0A026E02EB011292ED022AC9
:104D4000D0ED122A90ED0D0A02EE220A80ED0D0A36
:104D5000026E02EB011292ED030A90ED0F2A20EE93
:104D6000020A80ED0E0A0CE080E0491C90ED172A43
:104D700000EE101AB8EEC00AB4EEC02AF1EE10FA36
:104D8000B6DC19E090ED010A90ED122A20EE020A3D
:104D900080ED0C0A90ED0D0A90ED022AD0ED122A5A
:104DA00002EE220A80ED0D0A90ED030A90ED0F2A23
:104DB00020EE020A80ED0E0A90ED0D0A90ED052A14
:104DC000B4EEC20AF1EE10FA04DD90ED050A80EDB2
:104DD0000D0A10E090ED0D0A90ED052AB1EE422A81
:104DE000B4EEC20AF1EE10FA05D290ED050AB1EE6A
:104DF000400A80ED0D0A90ED0C0A90ED0D2A30EE80
:104E0000020A90ED0E2A30EE020A80ED080A90EDBB
:104E10000D0A90ED122A20EE020AB5EEC00AF1EE5C
:104E200010FA03D29FED6F0A80ED0D0A90ED080A8B
:104E300090ED042AB4EEC20AF1EE10FA04DD90ED12
:104E4000040A80ED080A75E090ED080A90ED042A46
:104E5000B1EE422AB4EEC20AF1EE10FA6AD290ED37
:104E6000040AB1EE400A80ED080A63E001780129E6
:104E700060D190ED120A90ED132A30EE420A90EDC7
:104E8000012A20EE020A80ED0C0A90ED020A90ED54
:104E9000122A20EE020A80ED0D0A90ED100A80ED34
:104EA000110A90ED0F0A80ED100A90ED120A90EDB4
:104EB000132AF0EE002A02EEC20A90ED142A30EE18
:104EC000020A80ED0F0A90ED030A90ED0F2A20EE02
:104ED000020A80ED0E0A90ED0C0A90ED0D2A30EEDC
:104EE000020A90ED0E2A30EE020A90ED082A30EE0A
:104EF000020A80ED080A90ED080A90ED042AB4EE4B
:104F0000C20AF1EE10FA04DD90ED040A80ED080A01
:104F100010E090ED080A90ED042AB1EE422AB4EEBA
:104F2000C20AF1EE10FA05D290ED040AB1EE400A81
:104F300080ED080A90ED080A90ED092A70EE420A09
:104F400090ED090AB5EEC00AF1EE10FA23DB90ED00
:104F50000A0AB4EEE00AF1EE10FA08D290ED090A5E
:104F600090ED0A2A30EE020A80ED080A36E090ED54
:104F70000B0ABFEE002A20EE020AB4EEE00AF1EEC0
:104F800010FA2BDD90ED090A90ED0B2A30EE420A63
:104F900080ED080A22E090ED0A0ABFEE002A20EE1A
:104FA000020AB4EEE00AF1EE10FA08DD90ED090A0B
:104FB00090ED0A2A30EE420A80ED080A0EE090EDEC
:104FC0000B0AB4EEE00AF1EE10FA07D290ED090AEE
:104FD00090ED0B2A30EE020A80ED080A90ED080AE7
:104FE00037E600000000000000B102B97047017010
:104FF000D2ED002AC0ED012AD2ED012AC0ED022A2D
:10500000D2ED022AC0ED032A80ED040AC0ED050AA4
:10501000DFED122AC0ED112AC0ED102AC0ED0F2AD3
:10502000DFED0E2AC0ED092AC0ED082AC0ED0E2AD8
:10503000C0ED0D2AC0ED0C2AC0ED142AC0ED132AD4
:10504000C0ED122A80ED0A1AC0ED0B1A80ED152A68
:10505000DFED022AC0ED162A00BFC7E700000000FE
:10506000F7EE000AC0ED160A016680ED170A7047D8
:1050700010B5044604B910BD2078617840EA0120DB
:10508000C0F30A002D49096808806078C010A17833
:1050900040EA4110C0F30A00284909684880A07816
:1050A0008011E17840EA8100217940EA8120C0F353
:1050B0000A0022490968888020794010617940EA15
:1050C000C110C0F30A001D490968C8801B48006868
:1050D0000088A0F5806000B2184909680880174868
:1050E00000684088A0F5806000B2144909684880D3
:1050F000124800688088A0F5806000B20F490968F6
:1051000088800E480068C088A0F5806000B20B4916
:105110000968C8806079C0F30110084909680872FD
:10512000607900118008054909684872FCF7E8F8C1
:105130000248006880ED030A00BF9CE7FC010020E4
:105140007CB504460E461546334601220221204610
:10515000009500F039F828B1606D40F020006065DE
:1051600003207CBD164800681821B0FBF1F01549FA
:10517000B0FBF1F04FF47A71484301906068B0F5EC
:10518000827F0DD13346002280212046009500F019
:105190001BF898B1606D40F0200060650320E0E7E7
:1051A00000BF019800B908E00198401E01902068F6
:1051B0008068C0F3C0100028F3D100BF0020D0E702
:1051C0002400002040420F002DE9F84F04460D4610
:1051D00090461E46DDF82890FDF76EFAA0EB090018
:1051E000371AFDF769FA82462C480068C0F3CB30C5
:1051F0007843009046E0701C002843D0FDF75CFA2D
:10520000A0EB0A00B84200D2A7BB2068406820F09B
:10521000E000216848606068B0F5827F0DD1A06829
:10522000B0F5004F03D0A068B0F5806F05D12068BD
:10523000006820F0400021680860A06AB0F5005FB7
:105240000DD100BF2068006820F40050216808607C
:105250002068006840F400502168086000BF012009
:1052600084F8510000BF002084F8500000BF0320E4
:10527000BDE8F88FFFE7009808B9002702E0009822
:10528000401E0090206880682840A84201D101207B
:1052900000E000204045AED10020E9E724000020D6
:1052A00000BF012002F080FEFBE7000010B500BF48
:1052B000502080F31188BFF34F8FBFF36F8F00BF73
:1052C00003F018FF18B14FF080500449086000BF88
:1052D000002080F3118800BF10BD000004ED00E045
:1052E00000B593B0302107A8FBF711F9142102A8EB
:1052F000FBF70DF900BF002001902448006840F042
:105300008050224908600846006800F080500190F3
:1053100000BF00BF00BF002001901D48006840F49E
:1053200080401B4908600846006800F480400190F6
:1053300000BF00BF012007900004089002200D90DC
:1053400041050E9106210F91A82110910221119182
:105350000421129107A8FDF72BFC08B1FCF797F880
:105360000F20029002200390002004904FF4A050E0
:1053700005904FF480500690052102A8FDF7B6FA7B
:1053800008B1FCF784F813B000BD000040380240BB
:10539000007000400348006840F470000149086054
:1053A0007047000088ED00E02DED028B8AB09FED84
:1053B0005B0AB0EE408A00200790089009900490A4
:1053C0000590069001900290039002F085FA054640
:1053D00002F0C4FA074602F083FA064602F0B6FA73
:1053E000044699E0D6ED030AB0EE600A0220FFF70A
:1053F00005FC002860D094ED040AB5EEC00AF1EE79
:1054000010FA14D1E088A0F5985000EE100AF8EEDA
:10541000C00A9FED431A80EE810ADFED420A20EEBA
:10542000200AF0EE408A03F0C7F984ED040AD6EDB5
:10543000000A94ED041A70EEC10AB0EE600A03F09F
:10544000BBF98DED040A96ED010A8DED050A96ED86
:10545000020A8DED060A04A905F1780000F066F84D
:1054600096ED030A85ED0B0AA08908B9E088A081B2
:10547000E088A189401A00EE100AF8EEC00A9FEDFC
:10548000281A80EE810ADFED270A20EE200AF0EECE
:10549000408A03F091F9B0EE408AD6ED000A70EE32
:1054A000880AB0EE600A03F087F98DED070A07A9B4
:1054B00005F1300000F03AF8D7ED030AB0EE600ACB
:1054C0000320FFF79BFBE0B1D7ED000A94ED041A2F
:1054D00070EEC10AB0EE600A03F06EF98DED010ABC
:1054E00097ED010A8DED020A97ED020A8DED030A90
:1054F00001A905F1540000F019F897ED030A85EDB4
:105500000A0A0948FBF79EF8074890ED050A85ED61
:10551000060A012002F048FD64E7000000000000D8
:105520000000004700003443804A002091ED000A4B
:1055300080ED010A91ED010A80ED020A91ED020A67
:1055400080ED000A90ED010ADFED250A80EE201AB9
:1055500080ED041A90ED020ADFED210A80EE201A98
:1055600080ED051A90ED000ADFED1D0A80EE201A8D
:1055700080ED031A90ED010AD0ED080A30EE600AC2
:10558000DFED180AB4EEE00AF1EE10FA04DD828BCA
:10559000521E12B2828310E090ED010AD0ED080A8B
:1055A00030EE600ADFED100AB4EEE00AF1EE10FA18
:1055B00003D2828B521C12B2828390ED010AB0F9A1
:1055C0001C2000EE902AF8EEE00A9FED081A01EE8A
:1055D000200A80ED060A90ED010A80ED080A704766
:1055E000E12E654200003443000034C30000B443A0
:1055F00010B50248FEF747F910BD0000040900206D
:1056000010B502682B4B98420ED0B0F1804F0BD0F2
:10561000294B984208D0294B984205D0284B9842F4
:1056200002D0284B984203D122F070024B681A43F3
:10563000204B984220D0B0F1804F1DD01E4B984295
:105640001AD01E4B984217D01D4B984214D01D4BB8
:10565000984211D01C4B98420ED01C4B98420BD054
:105660001B4B984208D01B4B984205D01A4B9842CE
:1056700002D01A4B984203D122F44072CB681A43ED
:1056800022F080034C6943EA04028B68C3620B6812
:105690008362084B984202D00A4B984201D10B69B1
:1056A0000363036843F00403036001234361026062
:1056B00010BD000000000140000400400008004050
:1056C000000C004000040140004001400044014043
:1056D0000048014000180040001C0040002000402D
:1056E00030B501F01F05012404FA05F3046A9C4358
:1056F0000462046A01F01F0502FA05F52C430462F6
:1057000030BD30B50C46816821F47F4142EA032563
:1057100025432943816030BD0A46816821F070012C
:1057200042F00703194381607047000030B5026AF8
:10573000056A25F0010505624368846924F0700458
:1057400024F003040D682C4322F002028D682A43E2
:10575000104DA84200D103E00F4DA84206D100BF72
:1057600022F00802CD682A4322F00402094DA84223
:1057700002D0094DA84207D123F4807323F40073AB
:105780004D692B438D692B43436084614D684563AC
:10579000026230BD000001400004014030B5026AE1
:1057A000056A25F0100505624368846924F4E04425
:1057B00024F440740D6844EA052422F020028D6828
:1057C00042EA0512124DA84200D103E0114DA84251
:1057D00007D100BF22F08002CD6842EA051222F014
:1057E00040020B4DA84202D00A4DA84209D123F431
:1057F000806323F400634D6943EA85038D6943EABE
:105800008503436084614D688563026230BD00009A
:10581000000001400004014030B5026A056A25F429
:10582000807505624368C46924F0700424F00304A1
:105830000D682C4322F400728D6842EA0522124D55
:10584000A84200D103E0114DA84207D100BF22F4C5
:105850000062CD6842EA052222F480620A4DA84225
:1058600002D00A4DA84209D123F4805323F40053F7
:105870004D6943EA05138D6943EA05134360C4612A
:105880004D68C563026230BD000001400004014064
:1058900030B5036A056A25F4805505624468C2691B
:1058A00022F4E04222F440720D6842EA052223F419
:1058B00000538D6843EA0533084DA84202D0084DD5
:1058C000A84204D124F480444D6944EA851444601C
:1058D000C2614D680564036230BD000000000140F4
:1058E0000004014030B50B461446026A056A25F0F3
:1058F00001050562816921F0F00141EA041122F0FD
:105900000A021A438161026230BD30B50B4614466B
:10591000026A056A25F010050562816921F470416B
:1059200041EA043122F0A00242EA031281610262DC
:1059300030BD70B50446A56B0020E8852846FEF70B
:105940006DFA70BD70B506460025B46B20684069DD
:10595000C0F3C01594F84100212805D125B10020DD
:10596000E084204600F0C8F820684069C0F3801544
:1059700094F84200222805D125B10020E085204678
:1059800000F074F8606C40F0100060642046FEF790
:1059900045FA70BD70B50546AC6B2868006800F428
:1059A0008070002842D1E08500BF00BF21680C3123
:1059B00051E8001F21F4807021680C3141E8000299
:1059C000002AF3D100BF00BF00BF2168143151E8A5
:1059D000001F21F001002168143141E80002002A73
:1059E000F3D100BF00BF00BF2168143151E8001F90
:1059F00021F040002168143141E80002002AF3D16F
:105A000000BF202084F84200206B01280ED100BF87
:105A100000BF21680C3151E8001F21F010002168FF
:105A20000C3141E80002002AF3D100BF002060637E
:105A3000206B012804D1A18D2046FEF7B7F902E0C2
:105A40002046FEF747FD70BD70B50546AC6B0120E2
:105A50006063206B012805D1A08D41082046FEF728
:105A6000A5F902E02046FEF736FD70BD00BF00BF7D
:105A700002680C3252E8002F22F4907102680C3256
:105A800042E80013002BF3D100BF00BF00BF026843
:105A9000143252E8002F22F001010268143242E869
:105AA0000013002BF3D100BF016B01290ED100BF01
:105AB00000BF02680C3252E8002F22F01001026889
:105AC0000C3242E80013002BF3D100BF202180F8F4
:105AD000421000210163704710B504462068C06879
